:020000040800F2
:100000000000022049180008AD150008BB150008C3
:10001000C1150008C7150008CD1500080000000034
:10002000000000000000000000000000D3150008E0
:10003000E115000800000000EF15000899180008FD
:1000400099180008991800089918000899180008CC
:1000500099180008991800089918000899180008BC
:100060009918000899180008FD1500080D160008D9
:10007000991800089918000899180008991800089C
:100080002116000899180008991800089918000806
:10009000991800089918000899180008991800087C
:1000A00099180008351600089918000899180008D2
:1000B000991800089918000899180008991800085C
:1000C000991800089918000899180008991800084C
:1000D00099180008491600085D16000899180008CC
:1000E000991800089918000899180008991800082C
:1000F000991800089918000899180008991800081C
:10010000991800089918000899180008991800080B
:1001100099180008991800089918000899180008FB
:10012000711600089918000899180008851600082B
:1001300099180008991800089918000899180008DB
:1001400099180008991800089918000899160008CD
:1001500099180008991800089918000899180008BB
:1001600099180008991800089918000899180008AB
:100170009918000899180008991800080000000054
:08018000991800089918000805
:1001900010B5054C237833B9044B13B10448AFF3C1
:1001A00000800123237010BD0C030020000000001C
:1001B000ECBF000808B5034B1BB103490348AFF37C
:1001C000008008BD0000000010030020ECBF000804
:1001D00001F0FF01102A2BDB10F0070F08D010F8F8
:1001E000013B013A8B422DD010F0070F42B3F6D1FC
:1001F000F0B441EA012141EA014122F007047FF015
:1002000000070023F0E80256083C85EA010586EA6B
:10021000010685FA47F5A3FA87F586FA47F6A5FAA7
:1002200087F68EB9EED1F0BC01F0FF0102F00702B3
:1002300032B110F8013B013A83EA010313B1F8D15E
:100240000020704701387047002D06BF354603383F
:10025000073815F0010F07D1013015F4807F02BF78
:10026000013015F4C03F0130F0BC0138704700BFC9
:1002700053B94AB9002908BF00281CBF4FF0FF310D
:100280004FF0FF3000F06EB9ADF1080C6DE904CE0F
:1002900000F006F8DDF804E0DDE9022304B0704761
:1002A0002DE9F047089D04468C46002B40F08380E2
:1002B0008A42174647D9B2FA82F242B1C2F120000F
:1002C00024FA00F09140974040EA010C94404FEA34
:1002D0001748230CBCFBF8F61FFA87FE08FB16C173
:1002E00043EA014306FB0EF1994209D9FB1806F1D6
:1002F000FF3080F01981994240F21681023E3B4462
:100300005B1AA4B2B3FBF8F008FB103344EA0344D1
:1003100000FB0EFEA64509D93C1900F1FF3380F021
:100320000581A64540F2028102383C4440EA06407D
:10033000A4EB0E0400261DB1D4400023C5E9004300
:100340003146BDE8F08702B9FFDEB2FA82F2002A38
:1003500050D1CB1B4FEA174E1FFA87F80126B3FB8B
:10036000FEFC210C0EFB1C3341EA034108FB0CF39D
:100370008B4207D979180CF1FF3002D28B4200F280
:10038000E9808446C91AA3B2B1FBFEF00EFB10113E
:1003900043EA014408FB00F8A04507D93C1900F1E5
:1003A000FF3302D2A04500F2D9801846A4EB08041E
:1003B00040EA0C40BFE78B4209D9002D00F0B18024
:1003C0000026C5E9000130463146BDE8F087B3FAA2
:1003D00083F6002E4AD18B4202D3824200F2B880CB
:1003E000841A61EB030101208C46002DA8D0C5E9D9
:1003F000004CA5E7C2F1200320FA03F6974001FA6A
:1004000002F04FEA174ED9403043030CB1FBFEF621
:100410001FFA87F80EFB161143EA014306FB08F1A9
:10042000994204FA02F409D9FB1806F1FF3C80F066
:100430008D80994240F28A80023E3B445B1A81B231
:10044000B3FBFEF00EFB103341EA034100FB08F35F
:100450008B4207D9791800F1FF3C73D28B4271D9D6
:1004600002383944CB1A40EA064678E7C6F1200C38
:1004700003FA06F422FA0CF31C4320FA0CF701FAF3
:1004800006F34FEA144E21FA0CF11F433B0CB1FB6B
:10049000FEF91FFA84F80EFB191143EA014109FB2A
:1004A00008FA8A4502FA06F200FA06F308D961183A
:1004B00009F1FF3048D28A4546D9A9F10209214401
:1004C000A1EB0A01BFB2B1FBFEF00EFB101147EA2F
:1004D000014700FB08F8B84507D9E71900F1FF31DB
:1004E0002ED2B8452CD90238274440EA0940A7EB60
:1004F0000807A0FB02894F45C64649461AD317D0C4
:100500005DB1B3EB0E0267EB010707FA0CFCF2409A
:100510004CEA0202F740C5E9002700263146BDE853
:10052000F0872E4628460BE70646E9E61846FDE624
:100530004345E5D2B8EB020E69EB04010138DFE771
:100540000846D2E760468DE78146B9E7664675E71B
:1005500030464AE7ACF1020C394413E702383C4418
:1005600024E700BF704700BF80B400AF00BFBD46A6
:100570005DF8047B7047000080B500AF01F08EF994
:1005800000F046F800F0B0FA00F068FA00F0C2F8A7
:1005900000F04AF900F07EF900F00CFA00F034FAAD
:1005A00000F014F900F0AEF900F0E2F8042112486E
:1005B00005F0D6FD0421104806F07BFA0F491048DB
:1005C00009F0ACFD0F4B1B689B68002118460AF030
:1005D000A9FA0C4B1B6898680023022200210AF03C
:1005E000A9FAF922084909480AF0F8F908F018FFB1
:1005F0000023184680BD00BF0007002080080020AF
:10060000E8070020A8020020C4CB000804C00008AE
:1006100080B598B000AF07F13003302200211846B2
:100620000AF0D4F907F11C0300221A605A609A609C
:10063000DA601A6107F10C0300221A605A609A60AE
:10064000DA600023BB60314B1B6C304A43F08053AF
:1006500013642E4B1B6C03F08053BB60BB680023FC
:100660007B602B4B1B682A4A43F480431360284B62
:100670001B6803F480437B607B6809233B634FF472
:10068000A0237B6301237B640223BB644FF48003BC
:10069000FB640F233B6548237B650223BB65032373
:1006A000FB6507F13003184604F0F2FD0346002B0A
:1006B00001D000F05DFB0F23FB6102233B620023AE
:1006C0007B624FF48053BB620023FB6207F11C0383
:1006D0000221184605F04CF80346002B01D000F02B
:1006E00047FB0123FB6080233B6105237B6107F10E
:1006F0000C03184605F03EFA0346002B01D000F02B
:1007000037FB00BF6037BD4680BD00BF00380240E8
:100710000070004080B500AF124B134A1A60114BB5
:10072000124A5A600F4B00229A600E4B0022DA6088
:100730000C4B4FF480421A610A4B00225A61094B5C
:1007400000229A61074B0022DA61064B00221A62EE
:10075000044802F01FFC0346002B01D000F008FB08
:1007600000BF80BDA006002000540040A08601000C
:1007700080B500AF124B134A1A60114B124A5A60EF
:100780000F4B00229A600E4B0022DA600C4B4FF4A4
:1007900080421A610A4B00225A61094B00229A6179
:1007A000074B0022DA61064B00221A62044802F06D
:1007B000F1FB0346002B01D000F0DAFA00BF80BD48
:1007C000F4050020005C0040801A060080B500AFF0
:1007D000134B144A1A60124B4FF400725A60104BBC
:1007E00030229A600E4B0122DA600D4B00221A6112
:1007F0000B4B4FF4FA525A61094B00229A61084B95
:100800000022DA61064B01221A62054803F030FE2D
:100810000346002B01D000F0ABFA00BF80BD00BF43
:10082000E0090020003C004080B500AF174B184A9B
:100830001A60164B4FF482725A60144B00229A6071
:10084000124B0022DA60114B00221A610F4B00227A
:100850005A610E4B4FF400729A610C4B1022DA6110
:100860000A4B00221A62094B00225A62074B0022EF
:100870009A62064B0A22DA62044805F089FB0346B5
:10088000002B01D000F074FA00BF80BD28080020C2
:100890000030014080B500AF184B194A1A60174B61
:1008A0004FF482725A60154B00229A60134B4FF43A
:1008B0000062DA60114B02221A61104B01225A6168
:1008C0000E4B4FF400729A610C4B2822DA610B4BED
:1008D00000221A62094B00225A62084B00229A62D7
:1008E000064B0A22DA62054805F052FB0346002B4C
:1008F00001D000F03DFA00BF80BD00BF48060020D7
:100900000038004080B58AB000AF07F12003002214
:100910001A605A603B1D00221A605A609A60DA60C1
:100920001A615A619A61214B214A1A601F4B0222B7
:100930005A601E4B00229A601C4B0122DA601B4B4E
:1009400000221A61194B00229A61184805F0DDFB5C
:100950000346002B01D000F00BFA00233B6200237A
:100960007B6207F120031946104806F0CDF80346D4
:10097000002B01D000F0FCF960237B600123BB60F9
:100980000023FB6000237B613B1D042219460748BE
:1009900005F02CFD0346002B01D000F0E9F90348D7
:1009A00000F0E6FC00BF2837BD4680BD00070020F0
:1009B0000004004080B500AF114B124A1A60104B82
:1009C0004FF4E1325A600E4B00229A600C4B002229
:1009D000DA600B4B00221A61094B0C225A61084B5A
:1009E00000229A61064B0022DA61054806F041F9BF
:1009F0000346002B01D000F0BBF900BF80BD00BF53
:100A0000E80700200010014080B500AF114B124AEA
:100A10001A60104B4FF4E1325A600E4B00229A607C
:100A20000C4B0022DA600B4B00221A61094B0C229E
:100A30005A61084B00229A61064B0022DA61054890
:100A400006F017F90346002B01D000F091F900BF22
:100A500080BD00BF800800200044004080B582B007
:100A600000AF00237B601F4B1B6B1E4A43F4001337
:100A700013631C4B1B6B03F400137B607B68002328
:100A80003B60184B1B6B174A43F480031363154BF1
:100A90001B6B03F480033B603B68002200210B20AA
:100AA00001F04EF80B2001F067F800220021102021
:100AB00001F046F8102001F05FF8002200213820F4
:100AC00001F03EF8382001F057F8002200213B20C9
:100AD00001F036F83B2001F04FF800BF0837BD4663
:100AE00080BD00BF0038024080B58CB000AF07F178
:100AF0001C0300221A605A609A60DA601A610023AF
:100B0000BB618B4B1B6B8A4A43F010031363884B0A
:100B10001B6B03F01003BB61BB6900237B61844B3B
:100B20001B6B834A43F004031363814B1B6B03F07D
:100B300004037B617B6900233B617D4B1B6B7C4A1B
:100B400043F0800313637A4B1B6B03F080033B611C
:100B50003B690023FB60764B1B6B754A43F0010336
:100B60001363734B1B6B03F00103FB60FB680023F3
:100B7000BB606F4B1B6B6E4A43F0020313636C4BFD
:100B80001B6B03F00203BB60BB6800237B60684BF8
:100B90001B6B674A43F008031363654B1B6B03F041
:100BA00008037B607B6801220C21624802F0B4F9E3
:100BB000002247F6A0315F4802F0AEF9002248F269
:100BC00020015D4802F0A8F9012210215B4802F0E3
:100BD000A3F9002246F20711594802F09DF90122BB
:100BE0004FF48051564802F097F901224FF480618A
:100BF000544802F091F900224FF40041514802F0AC
:100C00008BF947F6AC33FB6101233B6200237B6227
:100C10000023BB6207F11C031946464801F0C8FFD8
:100C200040F24143FB6100233B6200237B6207F1FA
:100C30001C0319463F4801F0BBFF48F22003FB614B
:100C400001233B6200237B620023BB6207F11C038C
:100C50001946394801F0ACFF0123FB6100233B62D8
:100C600000237B6207F11C031946334801F0A0FF03
:100C70001023FB6101233B6200237B620223BB62E2
:100C800007F11C0319462D4801F092FF1023FB6168
:100C90002D4B3B6200237B6207F11C03194626485B
:100CA00001F086FF46F20713FB6101233B6200233C
:100CB0007B620023BB6207F11C031946204801F048
:100CC00077FF4FF48053FB6101233B6201237B627A
:100CD0000223BB6207F11C031946194801F068FFA3
:100CE00040F2FF23FB6100233B6200237B6207F19C
:100CF0001C031946134801F05BFF4FF40443FB61EA
:100D000001233B6200237B620023BB6207F11C03CB
:100D100019460C4801F04CFF002200210A2000F087
:100D20000FFF0A2000F028FF00BF3037BD4680BD0E
:100D3000003802400010024000080240000002405B
:100D400000040240000C02400000311080B582B067
:100D500000AF78607B681B68044A934201D100F0C1
:100D6000F3FD00BF0837BD4680BD00BF0000014055
:100D700080B400AF00BFBD465DF8047B7047000043
:100D800080B483B000AF00237B60104B5B6C0F4AD4
:100D900043F4804353640D4B5B6C03F480437B60EE
:100DA0007B6800233B60094B1B6C084A43F080536F
:100DB0001364064B1B6C03F080533B603B6800BF21
:100DC0000C37BD465DF8047B704700BF0038024019
:100DD00080B58CB000AF786007F11C0300221A6068
:100DE0005A609A60DA601A617B681B68424A9342D3
:100DF0002CD10023BB61414B1B6B404A43F00203E3
:100E000013633E4B1B6B03F00203BB61BB69C02342
:100E1000FB6112233B6201237B620323BB62042339
:100E2000FB6207F11C031946354801F0C1FE00239F
:100E30007B61324B1B6C314A43F4001313642F4B1C
:100E40001B6C03F400137B617B6950E07B681B68BB
:100E50002C4A93424BD100233B61284B1B6B274A02
:100E600043F004031363254B1B6B03F004033B6146
:100E70003B690023FB60214B1B6B204A43F00103BD
:100E800013631E4B1B6B03F00103FB60FB684FF405
:100E90000073FB6112233B6201237B620323BB626D
:100EA0000423FB6207F11C031946174801F080FE7A
:100EB0004FF48073FB6112233B6201237B620323A7
:100EC000BB620423FB6207F11C0319460F4801F0C3
:100ED0006FFE0023BB60094B1B6C084A43F4000300
:100EE0001364064B1B6C03F40003BB60BB6800BFBC
:100EF0003037BD4680BD00BF00540040003802407E
:100F000000040240005C0040000802400000024073
:100F100080B58AB000AF786007F1140300221A6030
:100F20005A609A60DA601A617B681B686B4A934268
:100F300040F0D08000233B61694B1B6C684A43F44E
:100F400000431364664B1B6C03F400433B613B6935
:100F50000023FB60624B1B6B614A43F00103136388
:100F60005F4B1B6B03F00103FB60FB680023BB605E
:100F70005B4B1B6B5A4A43F004031363584B1B6BC8
:100F800003F00403BB60BB684FF400437B610223A2
:100F9000BB610023FB6102233B6206237B6207F1F6
:100FA000140319464F4801F003FE4FF4A0537B6130
:100FB0000223BB610023FB6102233B6206237B62A9
:100FC00007F114031946484801F0F2FD4FF400639D
:100FD0007B610223BB610023FB6102233B6205238B
:100FE0007B6207F1140319463F4801F0E1FD3F4BD6
:100FF0003F4A1A603D4B4FF0C0625A603B4B0022A3
:101000009A603A4B0022DA60384B4FF480621A61E2
:10101000364B4FF400625A61344B4FF400529A61E0
:10102000324B0022DA61314B4FF440321A622F4BBF
:1010300004225A622D4B03229A622C4B0022DA6260
:101040002A4B00221A63294800F0A4FD0346002B16
:1010500001D0FFF78DFE7B68244ADA63234A7B6860
:101060009363244B244A1A60224B00225A60214B7E
:1010700040229A601F4B0022DA601E4B4FF48062C0
:101080001A611C4B4FF400625A611A4B4FF4005224
:101090009A61184B0022DA61164B4FF440321A6203
:1010A000144B04225A62134B03229A62114B002202
:1010B000DA62104B00221A630E4800F06BFD034603
:1010C000002B01D0FFF754FE7B680A4A9A63094A55
:1010D0007B68936300BF2837BD4680BD003C00405D
:1010E0000038024000000240000802408009002051
:1010F00010600240400700208860024080B58CB03C
:1011000000AF786007F11C0300221A605A609A60F1
:10111000DA601A617B681B687A4A934240F09D80CE
:101120000023BB61784B5B6C774A43F48053536474
:10113000754B5B6C03F48053BB61BB6900237B611F
:10114000714B1B6B704A43F0010313636E4B1B6BB7
:1011500003F001037B617B69E023FB6102233B62B7
:1011600000237B620323BB620523FB6207F11C03A0
:101170001946664801F01CFD654B664A1A60644BCF
:101180004FF0C0625A60624B40229A60604B00226E
:10119000DA605F4B4FF480621A615D4B00225A6146
:1011A0005B4B00229A615A4B0022DA61584B4FF494
:1011B00040321A62564B04225A62554B03229A62FD
:1011C000534B0022DA62524B00221A63504800F05F
:1011D000E1FC0346002B01D0FFF7CAFD7B684C4AB7
:1011E0009A644B4A7B6893634B4B4C4A1A604A4B58
:1011F0004FF0C0625A60484B00229A60464B002272
:10120000DA60454B4FF480621A61434B00225A6109
:10121000414B00229A61404B0022DA613E4B4FF471
:1012200040321A623C4B04225A623B4B03229A62C0
:10123000394B0022DA62384B00221A63364800F03C
:10124000A9FC0346002B01D0FFF792FD7B68324AD0
:10125000DA64314A7B6893634FE07B681B68304AED
:1012600093424AD100233B61274B1B6C264A43F42F
:1012700080431364244B1B6C03F480433B613B6944
:101280000023FB60204B1B6B1F4A43F004031363D6
:101290001D4B1B6B03F00403FB60FB680023BB606A
:1012A000194B1B6B184A43F002031363164B1B6B5D
:1012B00003F00203BB60BB680823FB6102233B62AF
:1012C00000237B620323BB620523FB6207F11C033F
:1012D0001946144801F06CFC4FF48063FB61022353
:1012E0003B6200237B620323BB620523FB6207F1A1
:1012F0001C0319460C4801F05BFC00BF3037BD46AB
:1013000080BD00BF003001400038024000000240B4
:101310002009002058640240C008002010640240E8
:1013200000380040000802400004024080B485B04C
:1013300000AF78607B681B680B4A93420DD1002395
:10134000FB600A4B1B6C094A43F002031364074B12
:101350001B6C03F00203FB60FB6800BF1437BD4643
:101360005DF8047B704700BF000400400038024075
:1013700080B588B000AF786007F10C0300221A60D6
:101380005A609A60DA601A617B681B68124A93425D
:101390001DD10023BB60114B1B6B104A43F00403AB
:1013A00013630E4B1B6B03F00403BB60BB6880230D
:1013B000FB6002233B6100237B610023BB610223AE
:1013C000FB6107F10C031946054801F0F1FB00BF72
:1013D0002037BD4680BD00BF0004004000380240F9
:1013E0000008024080B58CB000AF786007F11C03A4
:1013F00000221A605A609A60DA601A617B681B6882
:101400003A4A934235D10023BB61394B5B6C384A71
:1014100043F010035364364B5B6C03F01003BB6165
:10142000BB6900237B61324B1B6B314A43F00103E4
:1014300013632F4B1B6B03F001037B617B694FF43C
:10144000C063FB6102233B6200237B620323BB6218
:101450000723FB6207F11C031946264801F0A8FB8D
:1014600000220021252000F06BFB252000F084FBEA
:1014700038E07B681B68204A934233D100233B61EC
:101480001B4B1B6C1A4A43F400331364184B1B6C40
:1014900003F400333B613B690023FB60144B1B6B7F
:1014A000134A43F001031363114B1B6B03F0010359
:1014B000FB60FB680C23FB6102233B6200237B6221
:1014C0000323BB620723FB6207F11C03194609488B
:1014D00001F06EFB00220021262000F031FB2620C7
:1014E00000F04AFB00BF3037BD4680BD0010014010
:1014F00000380240000002400044004080B58CB03B
:1015000000AF78600023FB620023BB620022796891
:10151000192000F015FB192000F02EFB0023FB60C2
:101520001E4B5B6C1D4A43F0010353641B4B5B6C09
:1015300003F00103FB60FB6807F1100207F11403DD
:101540001146184604F0E4FA04F0CEFAF862FB6A99
:10155000134AA2FB03239B0C013BBB62114B124AB3
:101560001A60104B40F2E732DA600E4ABB6A5360F1
:101570000C4B00221A610B4B00229A60094804F0C0
:101580006BFD0346002B04D1064804F09AFD034688
:1015900000E0012318463037BD4680BD00380240C8
:1015A00083DE1B43280A00200000014080B400AF06
:1015B00000BFBD465DF8047B704780B400AFFEE716
:1015C00080B400AFFEE780B400AFFEE780B400AFA8
:1015D000FEE780B400AF00BFBD465DF8047B7047F6
:1015E00080B400AF00BFBD465DF8047B704780B497
:1015F00000AF00BFBD465DF8047B704780B500AF0B
:10160000102001F0A3FC00BF80BD000080B500AF3A
:10161000024800F0E7FB00BF80BD00BF800900204A
:1016200080B500AF024800F0DDFB00BF80BD00BF09
:101630004007002080B500AF024804F0CFFD00BF96
:1016400080BD00BF280A002080B500AF024805F029
:10165000F1FC00BF80BD00BFE807002080B500AFEF
:10166000024805F0E7FC00BF80BD00BF80080020F5
:1016700080B500AF024800F0B5FB00BF80BD00BFE1
:10168000C008002080B500AF024800F0ABFB00BFEF
:1016900080BD00BF2009002080B400AF00BFBD4660
:1016A0005DF8047B704780B400AF01231846BD4647
:1016B0005DF8047B704780B582B000AF7860396018
:1016C00009F04CF9034616221A604FF0FF33184612
:1016D0000837BD4680BD80B582B000AF78604FF05E
:1016E000FF317868FFF7E7FFFEE780B586B000AF0F
:1016F000F860B9607A6000237B610AE008F0B4FC0E
:101700000146BB685A1CBA60CAB21A707B690133C1
:101710007B617A697B689A42F0DB7B6818461837F0
:10172000BD4680BD80B586B000AFF860B9607A6014
:1017300000237B6109E0BB685A1CBA601B7818461D
:1017400008F054FC7B6901337B617A697B689A42BB
:10175000F1DB7B6818461837BD4680BD80B483B086
:1017600000AF78604FF0FF3318460C37BD465DF888
:10177000047B704780B483B000AF786039603B6809
:101780004FF400525A60002318460C37BD465DF8EE
:10179000047B704780B483B000AF786001231846A3
:1017A0000C37BD465DF8047B704780B485B000AF50
:1017B000F860B9607A60002318461437BD465DF8BA
:1017C000047B704780B584B000AF7860114B1B6814
:1017D000002B02D10F4B104A1A600E4B1B68FB60A6
:1017E0000C4B1A687B6813446A46934207D909F088
:1017F000B5F803460C221A604FF0FF3306E0054BA4
:101800001A687B681344034A1360FB681846103754
:10181000BD4680BD280300201811002080B400AF11
:10182000084BD3F88830074A43F47003C2F8883075
:10183000044B4FF000629A6000BFBD465DF8047B28
:10184000704700BF00ED00E0DFF834D0002103E076
:101850000C4B5B58435004310B480C4B42189A42D6
:10186000F6D30B4A02E0002342F8043B094B9A42AC
:10187000F9D3FFF7D3FF09F077F8FEF77DFE704745
:101880000000022078E50008000000200C03002082
:101890000C03002018110020FEE7000080B500AF07
:1018A0000E4B1B680D4A43F4007313600B4B1B680F
:1018B0000A4A43F480631360084B1B68074A43F4E9
:1018C00080731360032000F030F90020FFF716FE4C
:1018D000FFF756FA0023184680BD00BF003C0240C7
:1018E00080B500AF134B4FF0FF321A62114B00224C
:1018F0001A62104B4FF0FF325A620E4B00225A62AE
:101900000C4B4FF0FF321A610A4B00221A61094B4F
:101910004FF0FF325A61074B00225A61054B4FF0DE
:10192000FF329A61034B00229A6100F005F8002310
:10193000184680BD0038024080B400AF00BFBD46ED
:101940005DF8047B7047000080B400AF064B1B7845
:101950001A46064B1B681344044A136000BFBD4679
:101960005DF8047B704700BF08000020680A002073
:1019700080B400AF034B1B681846BD465DF8047B7E
:10198000704700BF680A002080B584B000AF78605F
:10199000FFF7EEFFB8607B68FB60FB68B3F1FF3FC9
:1019A00005D00A4B1B781A46FB681344FB6000BF46
:1019B000FFF7DEFF0246BB68D31AFA689A42F7D8EF
:1019C00000BF00BF1037BD4680BD00BF080000202B
:1019D00080B485B000AF78607B6803F00703FB60DC
:1019E0000C4BDB68BB60BA684FF6FF031340BB606B
:1019F000FB681A02BB68134343F0BF6343F4003330
:101A0000BB60044ABB68D36000BF1437BD465DF8B5
:101A1000047B704700ED00E080B400AF044BDB684E
:101A20001B0A03F007031846BD465DF8047B7047A8
:101A300000ED00E080B483B000AF0346FB7197F97E
:101A40000730002B0BDBFB7903F01F02074997F9E6
:101A500007305B09012000FA02F241F8232000BFA1
:101A60000C37BD465DF8047B704700BF00E100E025
:101A700080B483B000AF03463960FB7197F907303B
:101A8000002B0ADB3B68DAB20C4997F907301201E8
:101A9000D2B20B4483F800230AE03B68DAB208496B
:101AA000FB7903F00F03043B1201D2B20B441A7608
:101AB00000BF0C37BD465DF8047B704700E100E0D5
:101AC00000ED00E080B489B000AFF860B9607A60E2
:101AD000FB6803F00703FB61FB69C3F10703042BF9
:101AE00028BF0423BB61FB690433062B02D9FB69C1
:101AF000033B00E000237B614FF0FF32BB6902FA39
:101B000003F3DA43BB681A407B699A404FF0FF3118
:101B10007B6901FA03F3D9437B680B4013431846F2
:101B20002437BD465DF8047B704780B582B000AFB6
:101B300078607868FFF74CFF00BF0837BD4680BD6E
:101B400080B586B000AF0346B9607A60FB730023AE
:101B50007B61FFF761FF78617A68B9687869FFF7A0
:101B6000B1FF024697F90F3011461846FFF780FF84
:101B700000BF1837BD4680BD80B582B000AF0346B8
:101B8000FB7197F907301846FFF754FF00BF08377D
:101B9000BD4680BD80B586B000AF786000237B6114
:101BA000FFF7E6FE38617B68002B01D1012399E045
:101BB0007B68002283F834207B68022283F835207A
:101BC0007B681B681A687B681B6822F001021A6038
:101BD0000FE0FFF7CDFE02463B69D31A052B08D96B
:101BE0007B6820225A657B68032283F83520032313
:101BF00078E07B681B681B6803F00103002BE8D1C9
:101C00007B681B681B687B617A69384B13407B617A
:101C10007B685A687B689B681A437B68DB681A4359
:101C20007B681B691A437B685B691A437B689B6905
:101C30001A437B68DB691A437B681B6A13437A6922
:101C400013437B617B685B6A042B07D17B68DA6A8C
:101C50007B681B6B13437A6913437B617B681B684A
:101C60007A691A607B681B685B697B617B6923F01A
:101C700007037B617B685B6A7A6913437B617B68DE
:101C80005B6A042B17D17B689B6A7A6913437B617B
:101C90007B68DB6A002B0ED0786800F091FA03466F
:101CA000002B08D07B6840225A657B68012283F8AC
:101CB0003520012316E07B681B687A695A617868D1
:101CC00000F048FA0346FB607B68DB6D3F229A40D8
:101CD000FB689A607B6800225A657B68012283F862
:101CE0003520002318461837BD4680BD3F8010F0D0
:101CF00080B586B000AFF860B9607A603B600023C1
:101D0000FB75FB689B6D3B61FB6893F83430012BDE
:101D100001D1022340E0FB68012283F83420FB68F4
:101D200093F83530DBB2012B2FD1FB68022283F808
:101D30003520FB6800225A653B687A68B968F86804
:101D400000F0DAF9FB68DB6D3F229A403B699A604C
:101D5000FB681B681A68FB681B6842F016021A6071
:101D6000FB681B6C002B07D0FB681B681A68FB68BC
:101D70001B6842F008021A60FB681B681A68FB685F
:101D80001B6842F001021A6005E0FB68002283F83C
:101D900034200223FB75FB7D18461837BD4680BDF5
:101DA00080B483B000AF78607B6893F83530DBB2E5
:101DB000022B04D07B6880225A6501230CE07B68EB
:101DC000052283F835207B681B681A687B681B68CE
:101DD00022F001021A60002318460C37BD465DF858
:101DE000047B704780B586B000AF78600023BB608D
:101DF000924B1B68924AA2FB03239B0A7B617B6880
:101E00009B6D3B613B691B68FB607B68DB6D082257
:101E10009A40FB681340002B1AD07B681B681B6834
:101E200003F00403002B13D07B681B681A687B68DF
:101E30001B6822F004021A607B68DB6D08229A405E
:101E40003B699A607B685B6D43F001027B685A6571
:101E50007B68DB6D01229A40FB681340002B12D097
:101E60007B681B685B6903F08003002B0BD07B68E9
:101E7000DB6D01229A403B699A607B685B6D43F0A1
:101E800002027B685A657B68DB6D04229A40FB681E
:101E90001340002B12D07B681B681B6803F0020301
:101EA000002B0BD07B68DB6D04229A403B699A6063
:101EB0007B685B6D43F004027B685A657B68DB6D71
:101EC00010229A40FB681340002B43D07B681B68AC
:101ED0001B6803F00803002B3CD07B68DB6D1022ED
:101EE0009A403B699A607B681B681B6803F48023F7
:101EF000002B18D07B681B681B6803F40023002BA1
:101F000008D17B681B6C002B24D07B681B6C786825
:101F100098471FE07B689B6C002B1BD07B689B6CF9
:101F20007868984716E07B681B681B6803F4807329
:101F3000002B07D17B681B681A687B681B6822F03E
:101F400008021A607B681B6C002B03D07B681B6C3B
:101F5000786898477B68DB6D20229A40FB681340C5
:101F6000002B00F08E807B681B681B6803F0100359
:101F7000002B00F086807B68DB6D20229A403B6955
:101F80009A607B6893F83530DBB2052B36D17B68DD
:101F90001B681A687B681B6822F016021A607B684F
:101FA0001B685A697B681B6822F080025A617B6853
:101FB0001B6C002B03D17B689B6C002B07D07B68CC
:101FC0001B681A687B681B6822F008021A607B682D
:101FD000DB6D3F229A403B699A607B68002283F860
:101FE00034207B68012283F835207B681B6D002B31
:101FF0007DD07B681B6D7868984778E07B681B68AC
:102000001B6803F48023002B1CD07B681B681B68B3
:1020100003F40023002B08D17B685B6C002B30D0CD
:102020007B685B6C786898472BE07B68DB6B002BE8
:1020300027D07B68DB6B7868984722E0000000209F
:10204000B5814E1B7B681B681B6803F48073002BF3
:102050000FD17B681B681A687B681B6822F010022E
:102060001A607B68002283F834207B68012283F8A1
:1020700035207B68DB6B002B03D07B68DB6B7868DB
:1020800098477B685B6D002B32D07B685B6D03F0FB
:102090000103002B22D07B68052283F835207B6862
:1020A0001B681A687B681B6822F001021A60BB6813
:1020B0000133BB607A699A4207D37B681B681B684F
:1020C00003F00103002BF2D100E000BF7B68002287
:1020D00083F834207B68012283F835207B68DB6C31
:1020E000002B05D07B68DB6C7868984700E000BF68
:1020F0001837BD4680BD00BF80B485B000AFF86022
:10210000B9607A603B60FB681B681A68FB681B68F3
:1021100022F480221A60FB681B683A685A60FB68E8
:102120009B68402B08D1FB681B687A689A60FB6843
:102130001B68BA68DA6007E0FB681B68BA689A60D7
:10214000FB681B687A68DA6000BF1437BD465DF82B
:10215000047B704780B485B000AF78607B681B68F3
:10216000DBB2103B144AA2FB03231B09FB60134A9A
:10217000FB6813441B781A467B68DA65FB68032BFF
:1021800009D97B681B6823F47F7323F003031A1DAE
:102190007B689A6507E07B681B6823F47F7323F0F4
:1021A00003037A6893657B689B6D18461437BD46B8
:1021B0005DF8047B704700BFABAAAAAAE4CB000875
:1021C00080B485B000AF78600023FB737B689B6AA6
:1021D000BB607B689B69002B1FD1BB68032B56D863
:1021E00001A252F823F000BFF92100080B220008D9
:1021F000F92100088F2200087B68DB6A03F08073F6
:10220000002B46D00123FB7343E07B68DB6AB3F10C
:10221000C07F40D10123FB733DE07B689B69B3F530
:10222000005F21D1BB68032B37D801A252F823F0FD
:1022300041220008472200084122000859220008D4
:102240000123FB7330E07B68DB6A03F08073002BB3
:1022500025D00123FB7322E07B68DB6AB3F1C07FEA
:102260001FD10123FB731CE0BB68022B03D9BB68A1
:10227000032B03D018E00123FB7315E07B68DB6AB6
:1022800003F08073002B0ED00123FB730BE000BF23
:102290000AE000BF08E000BF06E000BF04E000BFA6
:1022A00002E000BF00E000BFFB7B18461437BD46CC
:1022B0005DF8047B704700BF80B586B000AFF86062
:1022C000B960C7E900230123FB75234B1B7E012B5B
:1022D00001D102233BE0204B01221A764CF2503010
:1022E00000F08CF80346FB75FB7D002B2BD1FB68BF
:1022F000002B05D13B781946B86800F037F916E095
:10230000FB68012B05D13B881946B86800F00AF933
:102310000DE0FB68022B05D13B681946B86800F058
:10232000DFF804E0D7E90023B86800F0A7F84CF222
:10233000503000F063F80346FB75084B1B69074AF1
:1023400023F001031361044B00221A76FB7D18462B
:102350001837BD4680BD00BF6C0A0020003C02401B
:1023600080B483B000AF0023FB710B4B1B69002BC3
:102370000BDA094B094A5A60074B094A5A60064B67
:102380001B69002B01DA0123FB71FB7918460C371E
:10239000BD465DF8047B7047003C02402301674561
:1023A000AB89EFCD80B400AF054B1B69044A43F005
:1023B0000043136100231846BD465DF8047B704757
:1023C000003C024080B400AF094B5B6903F001039D
:1023D000002B07D0064B074A9A60054B064A9A60C5
:1023E000002300E001231846BD465DF8047B7047DA
:1023F000003C02403B2A19087F6E5D4C80B584B0DA
:1024000000AF78600023FB601A4B0022DA61FFF70F
:10241000AFFAF86010E07B68B3F1FF3F0CD07B6847
:10242000002B07D0FFF7A4FA0246FB68D31A7A689C
:102430009A4201D2032319E00F4BDB6803F4803387
:10244000002BE8D10C4BDB6803F00103002B02D01A
:10245000094B0122DA60084BDB6803F0F203002B22
:1024600003D000F0A5F8012300E000231846103740
:10247000BD4680BD6C0A0020003C024080B485B09F
:1024800000AFF860C7E90023144B1B69134A23F41B
:1024900040731361114B1B69104A43F4407313617D
:1024A0000E4B1B690D4A43F001031361FB683A6848
:1024B0001A60BFF36F8F00BFD7E900014FF0000231
:1024C0004FF000030A000023F968043113460B6043
:1024D00000BF1437BD465DF8047B7047003C0240E6
:1024E00080B483B000AF786039600D4B1B690C4A33
:1024F00023F4407313610A4B1B69094A43F40073C8
:102500001361074B1B69064A43F0010313617B68A3
:102510003A681A6000BF0C37BD465DF8047B70470F
:10252000003C024080B483B000AF78600B467B80F3
:102530000D4B1B690C4A23F4407313610A4B1B6952
:10254000094A43F480731361074B1B69064A43F041
:10255000010313617B687A881A8000BF0C37BD467F
:102560005DF8047B704700BF003C024080B483B03C
:1025700000AF78600B46FB700C4B1B690B4A23F4D1
:1025800040731361094B094A1B691361074B1B69AF
:10259000064A43F0010313617B68FA781A7000BFA2
:1025A0000C37BD465DF8047B704700BF003C02401D
:1025B00080B400AF274BDB6803F01003002B08D07A
:1025C000254BDB6943F01003234AD361214B1022D2
:1025D000DA60204BDB6803F02003002B08D01E4B91
:1025E000DB6943F008031C4AD3611A4B2022DA60EE
:1025F000184BDB6803F04003002B08D0164BDB6957
:1026000043F00403144AD361124B4022DA60114BA9
:10261000DB6803F08003002B08D00F4BDB6943F02D
:1026200002030D4AD3610B4B8022DA60094BDB6851
:1026300003F00203002B08D0074BDB6943F02003B3
:10264000054AD361034B0222DA6000BFBD465DF844
:10265000047B7047003C02406C0A002080B584B0C7
:1026600000AF786039600123FB730023BB60314BFE
:102670001B7E012B01D1022358E02E4B01221A763A
:102680004CF25030FFF7BAFE0346FB73FB7B002B86
:1026900048D13B684FF0FF321A607B681B68012B02
:1026A00015D17B681B69DAB27B685B6819461046F6
:1026B00000F0D6F84CF25030FFF7A0FE0346FB7353
:1026C0001D4B1B691C4A23F00403136128E07B683F
:1026D0009B68BB601CE07B681B69DBB21946B8686D
:1026E00000F0E2F84CF25030FFF788FE0346FB732F
:1026F000114B1B69104A23F0FA031361FB7B002B7B
:1027000003D03B68BA681A600AE0BB680133BB605B
:102710007B68DA687B689B681344BA689A42DAD3AC
:1027200000F000FA034B00221A76FB7B18461037A4
:10273000BD4680BD6C0A0020003C024080B584B0DC
:1027400000AF78600123FB73324B1B7E012B01D15C
:1027500002235BE02F4B01221A767B681B6803F093
:102760000103002B18D07B685B68012B0AD17B68C2
:102770009A687B68DB681946104600F0DDF803466E
:10278000FB7309E07B689A687B68DB681946104632
:1027900000F0F4F80346FB737B681B6803F0020348
:1027A000002B07D07B681B69DBB2184600F006F9E6
:1027B0000346FB737B681B6803F00403002B13D0F4
:1027C0007B681B7E03F02003D8B27B681B7E03F07E
:1027D0004003D9B27B681B7E23F07F03DBB21A462D
:1027E00000F006F90346FB737B681B6803F00803DF
:1027F000002B07D07B685B69DBB2184600F028F934
:102800000346FB73034B00221A76FB7B18461037F6
:10281000BD4680BD6C0A002080B582B000AF7860F4
:102820007B680F221A6000F041F903461A467B6864
:102830009A6000F047F903461A467B681A6100F077
:1028400025F903461A467B681A7600F05BF90346C1
:102850001A467B685A6100BF0837BD4680BD00003C
:1028600080B483B000AF03463960FB710D4B1B6928
:102870000C4A23F4407313610A4B1B69094A43F065
:1028800004031361074B1A69FB791B021343054AC2
:1028900043F48033136100BF0C37BD465DF8047B01
:1028A000704700BF003C024080B485B000AF786044
:1028B0000B46FB700023FB60FB78002B02D100234A
:1028C000FB6010E0FB78012B03D14FF48073FB60B9
:1028D00009E0FB78022B03D14FF40073FB6002E0A8
:1028E0004FF44073FB60134B1B69124A23F440738F
:1028F0001361104B1A690F49FB6813430B610D4BB1
:102900001B690C4A23F0F80313610A4B1A697B68B0
:10291000DB001343074A43F002031361054B1B69B5
:10292000044A43F48033136100BF1437BD465DF899
:10293000047B7047003C024080B584B000AF7860F3
:1029400039600023FB734CF25030FFF757FD03460C
:10295000FB73FB7B002B0AD1074B1B889AB27B6869
:102960009BB2DB439BB2044913409BB20B80FB7BC1
:1029700018461037BD4680BD163C024080B584B075
:1029800000AF786039600023FB734CF25030FFF7E2
:1029900035FD0346FB73FB7B002B08D1064B1B88E0
:1029A0009AB27B689BB2044913439BB20B80FB7BBA
:1029B00018461037BD4680BD163C024080B584B035
:1029C00000AF0346FB710023FB734CF25030FFF75E
:1029D00015FD0346FB73FB7B002B02D1034AFB79F9
:1029E0001370FB7B18461037BD4680BD153C024076
:1029F00080B584B000AF0346FB710B46BB71134634
:102A00007B71FF23FB730023BB734CF25030FFF745
:102A1000F5FC0346BB73BB7B002B11D10B4B1B7822
:102A2000DBB203F01F03FB73BA79FB7B1343DAB20B
:102A30007B791343DAB20549FB791343DBB20B70A0
:102A4000BB7B18461037BD4680BD00BF143C02401A
:102A500080B483B000AF0346FB710B4B1B78DBB235
:102A6000094A23F00C03DBB21370074B1B78DAB270
:102A70000549FB791343DBB20B70002318460C3772
:102A8000BD465DF8047B7047143C024080B400AF43
:102A9000054B5B69DBB223F01F03DBB21846BD4672
:102AA0005DF8047B704700BF003C024080B400AF7B
:102AB000034B1B889BB21846BD465DF8047B7047EC
:102AC000163C024080B483B000AFAA23FB710C4BCC
:102AD0001B78DBB2CC2B02D1CC23FB7109E0084B75
:102AE0001B78DBB2AA2B02D1AA23FB7101E055238C
:102AF000FB71FB7918460C37BD465DF8047B7047C7
:102B0000153C024080B400AF054B1B78DBB203F0EC
:102B10000C03DBB21846BD465DF8047B704700BF6E
:102B2000143C024080B400AF204B1B6803F40073D8
:102B3000002B17D01D4B1B681C4A23F40073136035
:102B40001A4B1B68194A43F400631360174B1B6848
:102B5000164A23F400631360144B1B68134A43F4B2
:102B600000731360114B1B6803F48063002B17D0B4
:102B70000E4B1B680D4A23F4806313600B4B1B68DC
:102B80000A4A43F480531360084B1B68074A23F436
:102B900080531360054B1B68044A43F48063136041
:102BA00000BFBD465DF8047B704700BF003C02409B
:102BB00080B489B000AF7860396000237B61002366
:102BC0003B610023BB610023FB616BE10122FB69D8
:102BD00002FA03F37B613B681B687A6913403B612F
:102BE0003A697B699A4240F05A813B685B68012BE5
:102BF0000BD03B685B68022B07D03B685B68112BEE
:102C000003D03B685B68122B30D17B689B68BB614B
:102C1000FB695B00032202FA03F3DB43BA6913404A
:102C2000BB613B68DA68FB695B0002FA03F3BA69CF
:102C30001343BB617B68BA699A607B685B68BB6160
:102C40000122FB6902FA03F3DB43BA691340BB615B
:102C50003B685B681B0903F00102FB6902FA03F39E
:102C6000BA691343BB617B68BA695A607B68DB68E9
:102C7000BB61FB695B00032202FA03F3DB43BA6921
:102C80001340BB613B689A68FB695B0002FA03F37F
:102C9000BA691343BB617B68BA69DA603B685B68F9
:102CA000022B03D03B685B68122B23D1FB69DA0847
:102CB0007B68083253F82230BB61FB6903F00703DD
:102CC0009B000F2202FA03F3DB43BA691340BB6196
:102CD0003B681A69FB6903F007039B0002FA03F3E0
:102CE000BA691343BB61FB69DA087B680832B969CA
:102CF00043F822107B681B68BB61FB695B00032201
:102D000002FA03F3DB43BA691340BB613B685B68BB
:102D100003F00302FB695B0002FA03F3BA69134391
:102D2000BB617B68BA691A603B685B6803F08053DB
:102D3000002B00F0B4800023FB60604B5B6C5F4AAB
:102D400043F4804353645D4B5B6C03F48043FB604E
:102D5000FB685B4AFB699B08023352F82330BB6176
:102D6000FB6903F003039B000F2202FA03F3DB432A
:102D7000BA691340BB617B68524A93422BD07B688F
:102D8000514A934225D07B68504A93421FD07B68BA
:102D90004F4A934219D07B684E4A934213D07B68C6
:102DA0004D4A93420DD07B684C4A934207D07B68D2
:102DB0004B4A934201D107230EE008230CE006237F
:102DC0000AE0052308E0042306E0032304E00223CD
:102DD00002E0012300E00023FA6902F003029200FE
:102DE0009340BA691343BB613549FB699B080233C1
:102DF000BA6941F823203B4B1B68BB613B69DB434D
:102E0000BA691340BB613B685B6803F48033002BF5
:102E100003D0BA693B691343BB61324ABB69136093
:102E2000304B5B68BB613B69DB43BA691340BB61F4
:102E30003B685B6803F40033002B03D0BA693B693D
:102E40001343BB61274ABB695360264B9B68BB6138
:102E50003B69DB43BA691340BB613B685B6803F4C1
:102E60008013002B03D0BA693B691343BB611D4A31
:102E7000BB6993601B4BDB68BB613B69DB43BA6991
:102E80001340BB613B685B6803F40013002B03D065
:102E9000BA693B691343BB61124ABB69D360FB69E2
:102EA0000133FB61FB690F2B7FF690AE00BF00BFC3
:102EB0002437BD465DF8047B704700BF00380240F0
:102EC00000380140000002400004024000080240B7
:102ED000000C0240001002400014024000180240A2
:102EE000001C0240003C014080B485B000AF786017
:102EF0000B467B807B681A697B881340002B02D0CD
:102F00000123FB7301E00023FB73FB7B184614379E
:102F1000BD465DF8047B704780B483B000AF786035
:102F20000B467B8013467B707B78002B03D07A881E
:102F30007B689A6103E07B881A047B689A6100BF12
:102F40000C37BD465DF8047B7047000080B582B049
:102F500000AF0346FB80084B5A69FB881340002BE7
:102F600006D0054AFB885361FB88184600F006F836
:102F700000BF0837BD4680BD003C014080B483B02F
:102F800000AF0346FB8000BF0C37BD465DF8047BF5
:102F90007047000080B584B000AF78607B68002B7C
:102FA00001D101232BE17B6893F83D30DBB2002B8C
:102FB00006D17B68002283F83C207868FDF708FF83
:102FC0007B68242283F83D207B681B681A687B6835
:102FD0001B6822F001021A607B681B681A687B6814
:102FE0001B6842F400421A607B681B681A687B68A1
:102FF0001B6822F400421A6002F062FDF8607B68F0
:103000005B68814A934207D8FB68804A934294BF29
:1030100001230023DBB206E0FB687D4A934294BFA4
:1030200001230023DBB2002B01D00123E7E0FB6882
:10303000784AA2FB03239B0CBB607B681B685B6820
:1030400023F03F017B681B68BA680A435A607B68BB
:103050001B681B6A23F03F017B685B686A4A9342E6
:1030600002D8BB68013309E0BB684FF4967202FBDB
:1030700003F3694AA2FB03239B0901337A681268B0
:103080000B4313627B681B68DB6923F44F4222F019
:10309000FF027B685B685C498B4219D8FB68591E4C
:1030A0007B685B685B00B1FBF3F3591C40F6FC7373
:1030B0000B40002B0AD0FB68591E7B685B685B00E5
:1030C000B1FBF3F30133C3F30B0351E004234FE0EF
:1030D0007B689B68002B11D1FB68581E7B68596880
:1030E0000B465B000B44B0FBF3F30133C3F30B035C
:1030F000002B0CBF01230023DBB212E0FB68581E3B
:103100007B6859680B469B000B4499000B44B0FB4D
:10311000F3F30133C3F30B03002B0CBF0123002394
:10312000DBB2002B01D0012322E07B689B68002BDF
:103130000ED1FB68581E7B6859680B465B000B4438
:10314000B0FBF3F30133C3F30B0343F400430FE08D
:10315000FB68581E7B6859680B469B000B4499001E
:103160000B44B0FBF3F30133C3F30B0343F44043CD
:10317000796809681343CB617B681B681B6823F07F
:10318000C0017B68DA697B681B6A1A437B681B682D
:103190000A431A607B681B689B6823F4034323F08F
:1031A000FF037A6811697A68D26811437A681268F5
:1031B0000B4393607B681B68DB6823F0FF017B682F
:1031C0005A697B689B691A437B681B680A43DA600B
:1031D0007B681B681A687B681B6842F001021A60F2
:1031E0007B6800221A647B68202283F83D207B687C
:1031F00000221A637B68002283F83E2000231846D1
:103200001037BD4680BD00BFA08601007F841E0030
:10321000FF083D0083DE1B43D34D621080B588B0AC
:1032200002AFF8607A601A460B467B8113463B81F9
:10323000FEF79EFB7861FB6893F83D30DBB2202BF4
:1032400040F0E0807B690093192301227049F868FF
:1032500000F030FF0346002B01D00223D3E0FB68CF
:1032600093F83C30012B01D10223CCE0FB68012212
:1032700083F83C20FB681B681B6803F00103012BEB
:1032800007D0FB681B681A68FB681B6842F00102E4
:103290001A60FB681B681A68FB681B6822F40062EE
:1032A0001A60FB68212283F83D20FB68102283F816
:1032B0003E20FB6800221A64FB687A685A62FB6849
:1032C0003A895A85FB685B8D9AB2FB681A85FB6860
:1032D000504ADA6279897B693A6AF86800F0EAFC58
:1032E0000346002B01D001238DE000233B61FB68E6
:1032F0001B685B693B61FB681B689B693B613B69C1
:1033000066E07A69396AF86800F0AAFF0346002B84
:103310000DD0FB681B6C042B07D1FB681B681A6877
:10332000FB681B6842F400721A6001236BE0FB68C3
:103330005B6A1A78FB681B681A61FB685B6A5A1C37
:10334000FB685A62FB685B8D9BB2013B9AB2FB68DB
:103350005A85FB681B8D013B9AB2FB681A85FB6896
:103360001B685B6903F00403042B1BD1FB681B8DF6
:10337000002B17D0FB685B6A1A78FB681B681A6120
:10338000FB685B6A5A1CFB685A62FB685B8D9BB2E8
:10339000013B9AB2FB685A85FB681B8D013B9AB2D0
:1033A000FB681A857A69396AF86800F09AFF034663
:1033B000002B0DD0FB681B6C042B07D1FB681B682E
:1033C0001A68FB681B6842F400721A6001231AE055
:1033D000FB681B8D002B94D1FB681B681A68FB6887
:1033E0001B6842F400721A60FB68202283F83D20BB
:1033F000FB68002283F83E20FB68002283F83C2013
:10340000002300E0022318461837BD4680BD00BFE8
:10341000020010000000FFFF80B588B002AFF86026
:10342000084611461A4603467B810B463B811346EC
:10343000FB80FEF79DFA7861FB6893F83D30DBB2C4
:10344000202B40F0D9807B690093192301226D491C
:10345000F86800F02FFE0346002B01D00223CCE0D9
:10346000FB6893F83C30012B01D10223C5E0FB68D7
:10347000012283F83C20FB681B681B6803F00103F2
:10348000012B07D0FB681B681A68FB681B6842F0B9
:1034900001021A60FB681B681A68FB681B6822F44B
:1034A00000621A60FB68212283F83D20FB684022FD
:1034B00083F83E20FB6800221A64FB683A6A5A626D
:1034C000FB68BA8C5A85FB685B8D9AB2FB681A85DB
:1034D000FB684D4ADA62F8883A8979897B690193F9
:1034E000BB6A00930346F86800F066FC0346002BB5
:1034F00052D0012381E07A69B96AF86800F0B0FE21
:103500000346002B0DD0FB681B6C042B07D1FB6816
:103510001B681A68FB681B6842F400721A6001237A
:103520006BE0FB685B6A1A78FB681B681A61FB68D2
:103530005B6A5A1CFB685A62FB681B8D013B9AB29E
:10354000FB681A85FB685B8D9BB2013B9AB2FB68F6
:103550005A85FB681B685B6903F00403042B1BD1CD
:10356000FB681B8D002B17D0FB685B6A1A78FB6821
:103570001B681A61FB685B6A5A1CFB685A62FB682D
:103580001B8D013B9AB2FB681A85FB685B8D9BB271
:10359000013B9AB2FB685A85FB681B8D002BAAD1B0
:1035A0007A69B96AF86800F09CFE0346002B0DD0DA
:1035B000FB681B6C042B07D1FB681B681A68FB684F
:1035C0001B6842F400721A60012316E0FB681B6856
:1035D0001A68FB681B6842F400721A60FB682022BC
:1035E00083F83D20FB68002283F83E20FB68002220
:1035F00083F83C20002300E0022318461837BD461C
:1036000080BD00BF020010000000FFFF80B58CB03D
:1036100002AFF860084611461A4603467B810B4606
:103620003B811346FB80FEF7A3F97862FB6893F8B1
:103630003D30DBB2202B40F008827B6A00931923D7
:1036400001227B49F86800F035FD0346002B01D0CC
:103650000223FBE1FB6893F83C30012B01D10223EC
:10366000F4E1FB68012283F83C20FB681B681B68BF
:1036700003F00103012B07D0FB681B681A68FB6885
:103680001B6842F001021A60FB681B681A68FB683D
:103690001B6822F400621A60FB68222283F83D2036
:1036A000FB68402283F83E20FB6800221A64FB6816
:1036B0003A6B5A62FB68BA8E5A85FB685B8D9AB288
:1036C000FB681A85FB685B4ADA62F8883A8979896F
:1036D0007B6A0193BB6B00930346F86800F002FC21
:1036E0000346002B01D00123B0E1FB681B8D002BAA
:1036F00013D100233B62FB681B685B693B62FB687C
:103700001B689B693B623B6AFB681B681A68FB6825
:103710001B6842F400721A6084E1FB681B8D012B68
:103720001BD1FB681B681A68FB681B6822F4806267
:103730001A600023FB61FB681B685B69FB61FB6827
:103740001B689B69FB61FB69FB681B681A68FB6867
:103750001B6842F400721A6064E1FB681B8D022B47
:103760001BD1FB681B681A68FB681B6822F4806227
:103770001A60FB681B681A68FB681B6842F40062E9
:103780001A600023BB61FB681B685B69BB61FB6857
:103790001B689B69BB61BB6944E100237B61FB68DB
:1037A0001B685B697B61FB681B689B697B617B694C
:1037B00038E1FB681B8D032B00F2F180FB681B8D49
:1037C000012B23D17A6AB96BF86800F0CBFD034670
:1037D000002B01D0012339E1FB681B681A69FB68E3
:1037E0005B6AD2B21A70FB685B6A5A1CFB685A6249
:1037F000FB681B8D013B9AB2FB681A85FB685B8DE9
:103800009BB2013B9AB2FB685A850BE1FB681B8DAA
:10381000022B4ED17B6A0093BB6B00220649F868ED
:1038200000F048FC0346002B08D001230EE100BF46
:10383000020010000000FFFF04000100FB681B688D
:103840001A68FB681B6842F400721A60FB681B6808
:103850001A69FB685B6AD2B21A70FB685B6A5A1C11
:10386000FB685A62FB681B8D013B9AB2FB681A85A4
:10387000FB685B8D9BB2013B9AB2FB685A85FB6883
:103880001B681A69FB685B6AD2B21A70FB685B6AD4
:103890005A1CFB685A62FB681B8D013B9AB2FB689D
:1038A0001A85FB685B8D9BB2013B9AB2FB685A8517
:1038B000B8E07B6A0093BB6B00226649F86800F0B1
:1038C000F9FB0346002B01D00123BFE0FB681B6816
:1038D0001A68FB681B6822F480621A60FB681B6828
:1038E0001A69FB685B6AD2B21A70FB685B6A5A1C81
:1038F000FB685A62FB681B8D013B9AB2FB681A8514
:10390000FB685B8D9BB2013B9AB2FB685A857B6A70
:103910000093BB6B00224F49F86800F0CBFB0346D5
:10392000002B01D0012391E0FB681B681A68FB683B
:103930001B6842F400721A60FB681B681A69FB6816
:103940005B6AD2B21A70FB685B6A5A1CFB685A62E7
:10395000FB681B8D013B9AB2FB681A85FB685B8D87
:103960009BB2013B9AB2FB685A85FB681B681A69D7
:10397000FB685B6AD2B21A70FB685B6A5A1CFB6810
:103980005A62FB681B8D013B9AB2FB681A85FB6883
:103990005B8D9BB2013B9AB2FB685A8542E07A6A22
:1039A000B96BF86800F0DEFC0346002B01D0012360
:1039B0004CE0FB681B681A69FB685B6AD2B21A703C
:1039C000FB685B6A5A1CFB685A62FB681B8D013BF3
:1039D0009AB2FB681A85FB685B8D9BB2013B9AB279
:1039E000FB685A85FB681B685B6903F00403042BC2
:1039F00018D1FB681B681A69FB685B6AD2B21A703F
:103A0000FB685B6A5A1CFB685A62FB681B8D013BB2
:103A10009AB2FB681A85FB685B8D9BB2013B9AB238
:103A2000FB685A85FB681B8D002B7FF4C2AEFB68D8
:103A3000202283F83D20FB68002283F83E20FB68AB
:103A4000002283F83C20002300E002231846283798
:103A5000BD4680BD0400010080B58AB002AFF860A9
:103A60007A603B600B467B81FDF782FFF8610123A2
:103A7000BB61FB6893F83D30DBB2202B40F0118135
:103A8000FB690093192301228849F86800F012FBB2
:103A90000346002B01D0022304E1FB6893F83C307D
:103AA000012B01D10223FDE0FB68012283F83C20B9
:103AB000FB681B681B6803F00103012B07D0FB6840
:103AC0001B681A68FB681B6842F001021A60FB68F9
:103AD0001B681A68FB681B6822F400621A60FB68A6
:103AE000242283F83D20FB6800221A64FB68704A98
:103AF000DA62FB681B681A68FB681B6842F4807214
:103B00001A60FB6900933B6800224FF00111F868CE
:103B100000F0D0FA0346002B0DD0FB681B681B6831
:103B200003F48073B3F5807F03D1FB684FF4007218
:103B30001A640323B6E07B89DBB21A46FB681B6874
:103B400002F0FE021A61FDF713FFF861FB681B68C3
:103B50005B6903F00203022B0CBF01230023DBB2DD
:103B6000FB75FB681B685B6903F48063B3F5806FCA
:103B70000CBF01230023DBB2BB7525E0FDF7F8FE87
:103B80000246FB69D31A3A689A4202D33B68002B7B
:103B900003D1FB68A02283F83D20FB681B685B69AA
:103BA00003F00203022B0CBF01230023DBB2FB75E1
:103BB000FB681B685B6903F48063B3F5806F0CBF1F
:103BC00001230023DBB2BB75FB6893F83D30DBB209
:103BD000A02B05D0FB7D002B02D1BB7D002BCDD0CF
:103BE000FB68202283F83D20FB681B685B6903F0BB
:103BF0000203022B29D1FB681B681A68FB681B684B
:103C000042F400721A6000233B61FB681B685B6929
:103C10003B61FB681B689B693B613B69FB690093E7
:103C2000192301222149F86800F044FA0346002BC9
:103C300001D0012336E0FB68202283F83D20FB6899
:103C4000002283F83C2000232CE0FB681B681A68E4
:103C5000FB681B6842F400721A60FB681B686FF413
:103C600080625A61FB690093192301220F49F868A9
:103C700000F020FA0346002B01D0012312E0BB69BB
:103C80000133BB61BA697B689A42FFF432AFFB68CB
:103C9000202283F83D20FB68002283F83C2001238A
:103CA00000E0022318462037BD4680BD0200100008
:103CB0000000FFFF80B588B002AFF8607A603B601B
:103CC0000B467B81FB68DB6A7B617B69082B06D036
:103CD0007B69012B03D07B6913F5803F08D1FB681A
:103CE0001B681A68FB681B6842F480721A600BE05C
:103CF000FB681B6B122B07D1FB681B681A68FB68FB
:103D00001B6842F480721A603B6800937B68002253
:103D10004FF00111F86800F0CDF90346002B0DD0EB
:103D2000FB681B681B6803F48073B3F5807F03D1C5
:103D3000FB684FF400721A64032335E0FB681B69CB
:103D4000B3F5804F08D17B89DBB21A46FB681B684C
:103D500002F0FE021A611BE07B89DB11DBB203F08B
:103D60000603DBB263F00F03DAB2FB681B681A616B
:103D70003B687A680E49F86800F0F3F90346002BB7
:103D800001D0012310E07B89DAB2FB681B681A615D
:103D90003B687A680749F86800F0E3F90346002BAE
:103DA00001D0012300E0002318461837BD4680BD2E
:103DB000080001000200010080B588B002AFF86081
:103DC000084611461A4603467B810B463B81134643
:103DD000FB80FB681B681A68FB681B6842F48072F2
:103DE0001A607B6A00933B6A00224FF00111F86869
:103DF00000F060F90346002B0DD0FB681B681B68C0
:103E000003F48073B3F5807F03D1FB684FF4007235
:103E10001A6403235FE07B89DBB21A46FB681B68E8
:103E200002F0FE021A617B6A3A6A2D49F86800F0D6
:103E300098F90346002B01D001234CE000237B615D
:103E4000FB681B685B697B61FB681B689B697B6126
:103E50007B697A6A396AF86800F002FA0346002B37
:103E60000DD0FB681B6C042B07D1FB681B681A681C
:103E7000FB681B6842F400721A6001232BE0FB8888
:103E8000012B05D13B89DAB2FB681B681A6121E07E
:103E90003B891B0A9BB2DAB2FB681B681A617A6A1B
:103EA000396AF86800F0DCF90346002B0DD0FB6896
:103EB0001B6C042B07D1FB681B681A68FB681B6826
:103EC00042F400721A60012305E03B89DAB2FB6814
:103ED0001B681A61002318461837BD4680BD00BF15
:103EE0000200010080B588B002AFF86008461146B4
:103EF0001A4603467B810B463B811346FB80FB68D9
:103F00001B681A68FB681B6842F480621A60FB68D1
:103F10001B681A68FB681B6842F480721A607B6A2F
:103F200000933B6A00224FF00111F86800F0C2F8DC
:103F30000346002B0DD0FB681B681B6803F48073DD
:103F4000B3F5807F03D1FB684FF400721A6403233A
:103F5000AAE07B89DBB21A46FB681B6802F0FE020E
:103F60001A617B6A3A6A5249F86800F0FAF8034627
:103F7000002B01D0012397E000237B61FB681B68C5
:103F80005B697B61FB681B689B697B617B697A6A03
:103F9000396AF86800F064F90346002B0DD0FB681D
:103FA0001B6C042B07D1FB681B681A68FB681B6835
:103FB00042F400721A60012376E0FB88012B05D1E0
:103FC0003B89DAB2FB681B681A6121E03B891B0A56
:103FD0009BB2DAB2FB681B681A617A6A396AF868C0
:103FE00000F03EF90346002B0DD0FB681B6C042B40
:103FF00007D1FB681B681A68FB681B6842F40072F3
:104000001A60012350E03B89DAB2FB681B681A6131
:104010007A6A396AF86800F023F90346002B0DD05C
:10402000FB681B6C042B07D1FB681B681A68FB68D4
:104030001B6842F400721A60012335E0FB681B68BC
:104040001A68FB681B6842F480721A607B6A0093EE
:104050003B6A00224FF00111F86800F02BF803468C
:10406000002B0DD0FB681B681B6803F48073B3F54D
:10407000807F03D1FB684FF400721A64032313E0BE
:104080007B89DBB243F00103DAB2FB681B681A617B
:104090007B6A3A6A0649F86800F063F80346002B29
:1040A00001D0012300E0002318461837BD4680BD2B
:1040B0000200010080B584B000AFF860B9603B60D9
:1040C0001346FB7125E03B68B3F1FF3F21D0FDF7BC
:1040D0004FFC0246BB69D31A3A689A4202D33B6846
:1040E000002B16D1FB6800221A63FB68202283F89C
:1040F0003D20FB68002283F83E20FB681B6C43F0E8
:104100002002FB681A64FB68002283F83C2001232C
:1041100023E0BB681B0CDBB2012B0DD1FB681B68D5
:104120005B69DA43BB6813409BB2002B0CBF0123D1
:104130000023DBB21A460CE0FB681B689B69DA437C
:10414000BB6813409BB2002B0CBF01230023DBB2E2
:104150001A46FB799A42B6D0002318461037BD465E
:1041600080BD80B584B000AFF860B9607A603B6014
:1041700051E0FB681B685B6903F48063B3F5806FF3
:1041800023D1FB681B681A68FB681B6842F4007245
:104190001A60FB681B686FF480625A61FB6800223A
:1041A0001A63FB68202283F83D20FB68002283F815
:1041B0003E20FB681B6C43F00402FB681A64FB683A
:1041C000002283F83C20012346E07B68B3F1FF3FE7
:1041D00021D0FDF7CDFB02463B68D31A7A689A429C
:1041E00002D37B68002B16D1FB6800221A63FB68A0
:1041F000202283F83D20FB68002283F83E20FB68E4
:104200001B6C43F02002FB681A64FB68002283F8F1
:104210003C20012320E0BB681B0CDBB2012B0CD13E
:10422000FB681B685B69DA43BB6813409BB2002BD9
:1042300014BF01230023DBB20BE0FB681B689B6902
:10424000DA43BB6813409BB2002B14BF0123002349
:10425000DBB2002B8DD1002318461037BD4680BD40
:1042600080B584B000AFF860B9607A602DE0F8687E
:1042700000F0CEF80346002B01D001232DE0BB68EF
:10428000B3F1FF3F21D0FDF773FB02467B68D31AE1
:10429000BA689A4202D3BB68002B16D1FB68002291
:1042A0001A63FB68202283F83D20FB68002283F814
:1042B0003E20FB681B6C43F02002FB681A64FB681D
:1042C000002283F83C20012307E0FB681B685B6940
:1042D00003F08003802BCAD1002318461037BD4657
:1042E00080BD80B584B000AFF860B9607A602DE021
:1042F000F86800F08DF80346002B01D001232DE073
:10430000BB68B3F1FF3F21D0FDF732FB02467B686B
:10431000D31ABA689A4202D3BB68002B16D1FB6845
:1043200000221A63FB68202283F83D20FB680022EC
:1043300083F83E20FB681B6C43F02002FB681A6484
:10434000FB68002283F83C20012307E0FB681B6820
:104350005B6903F00403042BCAD10023184610370D
:10436000BD4680BD80B584B000AFF860B9607A60AA
:1043700042E0FB681B685B6903F01003102B19D146
:10438000FB681B686FF010025A61FB6800221A6319
:10439000FB68202283F83D20FB68002283F83E2042
:1043A000FB681A6CFB681A64FB68002283F83C20E7
:1043B000012329E0FDF7DCFA02467B68D31ABA68CC
:1043C0009A4202D3BB68002B16D1FB6800221A6305
:1043D000FB68202283F83D20FB68002283F83E2002
:1043E000FB681B6C43F02002FB681A64FB68002228
:1043F00083F83C20012307E0FB681B685B6903F03E
:104400004003402BB5D1002318461037BD4680BD70
:1044100080B483B000AF78607B681B685B6903F48D
:104420008063B3F5806F1BD17B681B686FF480627B
:104430005A617B6800221A637B68202283F83D2042
:104440007B68002283F83E207B681B6C43F00402EB
:104450007B681A647B68002283F83C20012300E01B
:10446000002318460C37BD465DF8047B70470000FA
:1044700080B588B000AF78607B68002B01D1012344
:1044800028E17B6893F84130DBB2002B09D17B68CF
:10449000002283F840207B68904A5A637868FCF7D2
:1044A00037FD7B68022283F841207B681B68DB694B
:1044B0007A68126823F47B6323F00F03D3617B686F
:1044C0001B6802221A627B685B69022B60D07B68E2
:1044D000DB68002B02D110237B6101E020237B618C
:1044E0007B689B68202B02D87B695B007B61012085
:1044F00001F022FCF8607B681B69B3F5007F25D1D1
:104500007B68DB68002B10D07B699B00FA68B2FBEC
:10451000F3F213469B0013445B001A467B685B6909
:10452000B2FBF3F305333B611FE07B69DB00FA6804
:10453000B2FBF3F213469B0013445B001A467B6800
:104540005B69B2FBF3F305333B610EE0FA687B690C
:10455000B2FBF3F213469B0013445B001A467B68E0
:104560005B69B2FBF3F305333B613B695C4AA2FB39
:104570000323DB083B613B6903F00103BB613A693C
:10458000BB69D31A5B08FB61BB691B02BB6103E01B
:104590000223FB610023BB61FB69012B02D9FB698C
:1045A000FF2B07D97B685B6C43F010027B685A6471
:1045B00001238FE07B681A69BB6942EA03017B68CB
:1045C0001B68FA690A431A627B681B68DB6923F47B
:1045D0007B6323F00F037A6851687A68926811430D
:1045E0007A68D26811437A6892690A431A437B68F1
:1045F0001B6842F40062DA617B681B6A012B61D19F
:104600007B68384A5A637B681B68374A934201D1FA
:10461000364B01E04FF04023DB697A68126832497B
:104620008A4201D1314A01E04FF0402223F47B63FA
:1046300023F00F03D3617B681B682B4A934201D19F
:104640002A4B01E04FF0402302221A627B681B686C
:10465000254A934201D1254B01E04FF04023DB690D
:104660007B817B685B68B3F5007F03D07B685B6808
:10467000002B03D14FF480733B6101E000233B61C9
:104680003B699AB27B689B6899B27B68DB6898B299
:104690007B689B699BB203439BB20B439BB2134362
:1046A0009AB27B8913439BB243F400637B817B689E
:1046B0001B680D4A934201D10C4B01E04FF040239F
:1046C0007A89DA617B6800225A647B68012283F868
:1046D0004120002318462037BD4680BDE74700082B
:1046E000CDCCCCCC114C0008003800400034004048
:1046F00080B483B000AF786000BF0C37BD465DF872
:10470000047B704780B483B000AF786000BF0C3783
:10471000BD465DF8047B704780B483B000AF78601D
:1047200000BF0C37BD465DF8047B704780B582B092
:1047300000AF78607B685B6A1A887B681B68DA6008
:104740007B685B6A9A1C7B685A627B685B8D9BB254
:10475000013B9AB27B685A857B685B8D9BB2002BCC
:104760000ED17B681B685A687B681B6822F0A00228
:104770005A607B68012283F841207868FFF7B8FF10
:1047800000BF0837BD4680BD80B582B000AF7860FD
:104790007B681B68DA687B68DB6A92B21A807B6888
:1047A000DB6A9A1C7B68DA627B685B8E9BB2013B9A
:1047B0009AB27B685A867B685B8E9BB2002B0ED1C7
:1047C0007B681B685A687B681B6822F060025A602D
:1047D0007B68012283F841207868FFF793FF00BFD0
:1047E0000837BD4680BD80B586B000AF78607B6875
:1047F0001B689B687B617B6893F84130DBB2042BBC
:104800003AD17B6903F00103012B09D17B681B6856
:104810005B6803F04003402B02D17868FFF7B4FFD8
:104820007B6903F04003402B26D17B681B685B68E3
:1048300003F02003202B1FD17B681B685A687B681C
:104840001B6822F060025A6000233B617B681B6892
:10485000DB683B617B681B689B683B613B697B68ED
:10486000012283F841207B685B6C43F002027B6885
:104870005A647868FFF750FF7B6893F84130DBB2E9
:10488000032B36D17B6903F00203022B09D17B682D
:104890001B685B6803F08003802B02D17868FFF708
:1048A00045FF7B6903F00803082B22D17B681B6856
:1048B0005B6803F02003202B1BD17B681B685A68C0
:1048C0007B681B6822F0A0025A600023FB607B68B3
:1048D0001B689B68FB60FB687B68012283F84120B2
:1048E0007B685B6C43F004027B685A647868FFF76E
:1048F00013FF00BF1837BD4680BD000080B588B0EB
:1049000000AFF860B9607A607B800023BB61002350
:104910007B610023FB77FB6893F84130DBB2012B0E
:1049200002D00223FB7760E1BB68002B05D07B68D7
:10493000002B02D07B88002B01D101235AE1FB68B8
:1049400093F84030DBB2012B01D1022352E1FB6826
:10495000012283F84020BA68FB685A627A68FB68D3
:10496000DA62FB681B68DB6903F007037B617B6924
:10497000032B02D07B69052B14D17B885B009AB294
:10498000FB681A857B885B009AB2FB685A857B8836
:104990005B009AB2FB681A867B885B009AB2FB6860
:1049A0005A860BE0FB687A881A85FB687A885A85F4
:1049B000FB687A881A86FB687A885A86FB68002228
:1049C0005A64FB68052283F84120FB68DB6B8B4A45
:1049D0001A64FB68DB6B8A4ADA63FB68DB6B894A23
:1049E000DA64FB689B6B854A1A64FB689B6B844A9C
:1049F000DA63FB689B6B834ADA64FB681B68DB69DC
:104A000003F440737B617B69B3F5007F02D07B695F
:104A1000002B6BD13B1DBB61FB68D86BFB681B682F
:104A2000794A934201D1794B01E04FF040230C3396
:104A30001946BB691A68FB681B8E9BB2FDF758F9D3
:104A4000FB681B68704A934201D1704B01E04FF044
:104A500040235A68FB681B686B498B4201D16B4B42
:104A600001E04FF0402342F001025A6007F10803D1
:104A7000BB61FB68986BBB691968FB681B680C33EA
:104A80001A46FB681B8D9BB2FDF732F9FB681B6869
:104A90005A68FB681B6842F002025A60FB681B6898
:104AA000DB6903F48063B3F5806F00F09E80FB68E0
:104AB0001B68554A934201D1544B01E04FF040230B
:104AC000DA69FB681B6850498B4201D14F4B01E00A
:104AD0004FF0402342F48062DA61FB681B68DA69B8
:104AE000FB681B6842F48062DA617EE0FB681B6849
:104AF000DB6903F44073B3F5407F0AD100233B61C7
:104B0000FB681B68DB683B61FB681B689B683B615B
:104B10003B6907F10803BB61FB68986BBB691968C7
:104B2000FB681B68384A934201D1384B01E04FF0D3
:104B300040230C331A46FB681B8D9BB2FDF7D8F857
:104B4000FB681B68304A934201D1304B01E04FF0C3
:104B500040235A68FB681B682B498B4201D12B4BC1
:104B600001E04FF0402342F002025A603B1DBB615E
:104B7000FB68D86BFB681B680C331946BB691A6865
:104B8000FB681B8E9BB2FDF7B3F8FB681B685A6885
:104B9000FB681B6842F001025A60FB681B68DB6916
:104BA00003F48063B3F5806F1ED0FB681B68164A60
:104BB000934201D1154B01E04FF04023DA69FB68C5
:104BC0001B6811498B4201D1104B01E04FF040238B
:104BD00042F48062DA61FB681B68DA69FB681B6873
:104BE00042F48062DA6100E000BFFB68002283F8D3
:104BF0004020FB7F18462037BD4680BDCD4E0008C3
:104C0000E94E000819500008003800400034004008
:104C100080B588B000AF78607B681B689B68FB61DB
:104C20007B681B68A24A934201D1A24B01E04FF07E
:104C300040239B68BB617B681B685B687B617B680A
:104C40001B689B4A934201D19A4B01E04FF04023ED
:104C50005B683B617B685B68B3F5007F04D07B6871
:104C60005B68002B40F09980FB6903F00203022B84
:104C700007D17B6903F08003002B02D0786800F035
:104C80000BFABB6903F00103012B07D13B6903F069
:104C90004003002B02D0786800F0AEFABB6903F045
:104CA0004003402B3AD13B6903F02003002B35D061
:104CB0007B681B687E4A934201D17E4B01E04FF036
:104CC00040235A687B681B6879498B4201D1794B34
:104CD00001E04FF0402322F060025A607B681B68BD
:104CE0005A687B681B6822F0A0025A600023FB60B0
:104CF0007B681B68DB68FB607B681B689B68FB60EC
:104D0000FB687B68012283F841207B685B6C43F081
:104D100002027B685A647868FFF7FEFCFB6903F0C7
:104D20000803082B40F0BE807B6903F02003002BB2
:104D300000F0B8807B681B685A687B681B6822F0AB
:104D4000A0025A607B681B68594A934201D1594BB3
:104D500001E04FF040235A687B681B6854498B423E
:104D600001D1544B01E04FF0402322F060025A6021
:104D70000023BB607B681B689B68BB60BB687B686B
:104D8000012283F841207B685B6C43F004027B685E
:104D90005A647868FFF7C0FC84E0BB6903F0020343
:104DA000022B07D13B6903F08003002B02D0786807
:104DB00000F0A4F9FB6903F00103012B07D17B6923
:104DC00003F04003002B02D0786800F0E3F9FB69A0
:104DD00003F04003402B2FD17B6903F02003002B0D
:104DE0002AD07B681B685A687B681B6822F06002C7
:104DF0005A607B681B682E4A934201D12D4B01E01B
:104E00004FF040235A687B681B6829498B4201D1C7
:104E1000284B01E04FF0402322F0A0025A607B684B
:104E2000012283F841207B685B6C43F002027B68BF
:104E30005A647868FFF770FCBB6903F00803082B1D
:104E400031D13B6903F02003002B2CD07B681B6819
:104E5000174A934201D1174B01E04FF040235A68A3
:104E60007B681B6812498B4201D1124B01E04FF065
:104E7000402322F0A0025A607B681B685A687B6856
:104E80001B6822F060025A607B68012283F841208F
:104E90007B685B6C43F004027B685A647868FFF7B8
:104EA0003BFC00E000BF00BF2037BD4680BD00BF17
:104EB000003800400034004080B483B000AF786018
:104EC00000BF0C37BD465DF8047B704780B584B0E9
:104ED00000AF78607B689B6BFB60F868FFF7ECFFC6
:104EE00000BF1037BD4680BD80B584B000AF78608C
:104EF0007B689B6BFB607B68DB69002B40F08480E8
:104F0000FB68DB6B7A689A423CD1FB681B68DB6903
:104F100003F44073B3F5007F06D0FB681B68DB69C0
:104F200003F44073002B16D1FB681B68384A934288
:104F300001D1384B01E04FF040235A68FB681B68F1
:104F400033498B4201D1334B01E04FF0402322F033
:104F500001025A6007E0FB681B685A68FB681B681F
:104F600022F001025A60FB6800225A86FB685B8DC2
:104F70009BB2002B06D1FB68012283F84120F86820
:104F800004F08CF9FB689B6B7A689A423CD1FB6811
:104F90001B68DB6903F44073B3F5007F06D0FB6840
:104FA0001B68DB6903F44073002B08D1FB681B68A6
:104FB0005A68FB681B6822F002025A6015E0FB6821
:104FC0001B68134A934201D1124B01E04FF040237A
:104FD0005A68FB681B680E498B4201D10D4B01E0FA
:104FE0004FF0402322F002025A60FB6800225A85EB
:104FF000FB685B8E9BB2002B06D1FB68012283F815
:105000004120F86804F04AF900BF1037BD4680BD62
:10501000003800400034004080B584B000AF7860B4
:105020007B689B6BFB60FB681B685A68FB681B68AE
:1050300022F003025A60FB681B68154A934201D1B3
:10504000144B01E04FF040235A68FB681B6810497D
:105050008B4201D10F4B01E04FF0402322F00302BD
:105060005A60FB6800225A85FB6800225A86FB685A
:10507000012283F84120FB685B6C43F00802FB6867
:105080005A64F868FFF748FB00BF1037BD4680BD83
:10509000003800400034004080B582B000AF786036
:1050A0007B685B6A991C7A6851621A887B681B6806
:1050B000DA607B685B8D9BB2013B9AB27B685A8554
:1050C0007B685B8D9BB2002B13D17B681B685A6891
:1050D0007B681B6822F0A0025A607B685B8E9BB2E3
:1050E000002B06D17B68012283F84120786804F008
:1050F000D5F800BF0837BD4680BD000080B582B03E
:1051000000AF78607B685B6A991C7A685162198885
:105110007B681B681D4A934201D11D4B01E04FF093
:1051200040230A46DA607B685B8D9BB2013B9AB2F2
:105130007B685A857B685B8D9BB2002B21D17B6895
:105140001B68124A934201D1114B01E04FF04023FA
:105150005A687B681B680D498B4201D10C4B01E0FA
:105160004FF0402322F0A0025A607B685B8E9BB216
:10517000002B06D17B68012283F84120786804F077
:105180008DF800BF0837BD4680BD00BF0038004025
:105190000034004080B582B000AF78607B681B6847
:1051A000D8687B68DB6A991C7A68D16282B21A80FF
:1051B0007B685B8E9BB2013B9AB27B685A867B68A8
:1051C0005B8E9BB2002B13D17B681B685A687B688F
:1051D0001B6822F060025A607B685B8D9BB2002BDB
:1051E00006D17B68012283F84120786804F056F8E4
:1051F00000BF0837BD4680BD80B582B000AF786083
:105200007B681B68204A934201D1204B01E04FF09C
:105210004023D8687B68DB6A991C7A68D16282B2C5
:105220001A807B685B8E9BB2013B9AB27B685A8680
:105230007B685B8E9BB2002B21D17B681B68124A76
:10524000934201D1114B01E04FF040235A687B6833
:105250001B680D498B4201D10C4B01E04FF04023FC
:1052600022F060025A607B685B8D9BB2002B06D1F6
:105270007B68012283F84120786804F00FF800BFB2
:105280000837BD4680BD00BF0038004000340040F4
:1052900080B586B000AF78607B68002B01D1012318
:1052A0005BE27B681B6803F00103002B75D0A34B06
:1052B0009B6803F00C03042B0CD0A04B9B6803F0FD
:1052C0000C03082B12D19D4B5B6803F48003B3F5EC
:1052D000800F0BD1994B1B6803F40033002B5BD07C
:1052E0007B685B68002B57D1012336E27B685B68E3
:1052F000B3F5803F06D1914B1B68904A43F480334D
:1053000013601DE07B685B68B3F5A02F0CD18B4B5D
:105310001B688A4A43F480231360884B1B68874AC2
:1053200043F4803313600BE0844B1B68834A23F4FF
:1053300080331360814B1B68804A23F48023136001
:105340007B685B68002B13D0FCF712FB386108E028
:10535000FCF70EFB02463B69D31A642B01D90323E9
:10536000FBE1764B1B6803F40033002BF0D014E014
:10537000FCF7FEFA386108E0FCF7FAFA02463B69EE
:10538000D31A642B01D90323E7E16C4B1B6803F4A8
:105390000033002BF0D100E000BF7B681B6803F0F6
:1053A0000203002B63D0654B9B6803F00C03002BBA
:1053B0000BD0624B9B6803F00C03082B1CD15F4B96
:1053C0005B6803F48003002B16D15C4B1B6803F071
:1053D0000203002B05D07B68DB68012B01D0012381
:1053E000BBE1564B1B6823F0F8027B681B69DB00AE
:1053F000524913430B603AE07B68DB68002B20D0F6
:105400004F4B01221A60FCF7B3FA386108E0FCF751
:10541000AFFA02463B69D31A022B01D903239CE160
:10542000464B1B6803F00203002BF0D0434B1B6874
:1054300023F0F8027B681B69DB00404913430B60D3
:1054400015E03F4B00221A60FCF792FA386108E041
:10545000FCF78EFA02463B69D31A022B01D90323CB
:105460007BE1364B1B6803F00203002BF0D17B6815
:105470001B6803F00803002B30D07B685B69002BAE
:1054800016D0304B01221A60FCF772FA386108E03E
:10549000FCF76EFA02463B69D31A022B01D90323AB
:1054A0005BE1264B5B6F03F00203002BF0D015E0AD
:1054B000244B00221A60FCF75BFA386108E0FCF725
:1054C00057FA02463B69D31A022B01D9032344E160
:1054D0001A4B5B6F03F00203002BF0D17B681B6853
:1054E00003F00403002B00F0A0800023FB75134B96
:1054F0001B6C03F08053002B0FD10023BB600F4BBC
:105500001B6C0E4A43F0805313640C4B1B6C03F06E
:105510008053BB60BB680123FB750B4B1B6803F416
:105520008073002B21D1084B1B68074A43F480731A
:105530001360FCF71DFA386111E000BF003802402B
:1055400000004742800E474200700040FCF710FA0E
:1055500002463B69D31A022B01D90323FDE0814B9C
:105560001B6803F48073002BF0D07B689B68012BD1
:1055700006D17D4B1B6F7C4A43F0010313671CE08F
:105580007B689B68052B0CD1774B1B6F764A43F0E9
:1055900004031367744B1B6F734A43F001031367D3
:1055A0000BE0714B1B6F704A23F0010313676E4BC6
:1055B0001B6F6D4A23F0040313677B689B68002B05
:1055C00015D0FCF7D5F938610AE0FCF7D1F90246AD
:1055D0003B69D31A41F28832934201D90323BCE0DC
:1055E000614B1B6F03F00203002BEED014E0FCF7BD
:1055F000BFF938610AE0FCF7BBF902463B69D31AF0
:1056000041F28832934201D90323A6E0564B1B6F27
:1056100003F00203002BEED1FB7D012B05D1524B91
:105620001B6C514A23F0805313647B689B69002BE9
:1056300000F092804C4B9B6803F00C03082B5CD06D
:105640007B689B69022B41D1484B00221A60FCF712
:105650008FF9386108E0FCF78BF902463B69D31AF1
:10566000022B01D9032378E03F4B1B6803F0007342
:10567000002BF0D17B68DA697B681B6A1A437B6870
:105680005B6A9B011A437B689B6A5B08013B1B04B6
:105690001A437B68DB6A1B06334913434B60334B69
:1056A00001221A60FCF764F9386108E0FCF760F940
:1056B00002463B69D31A022B01D903234DE02A4B42
:1056C0001B6803F00073002BF0D045E0274B00224D
:1056D0001A60FCF74DF9386108E0FCF749F9024619
:1056E0003B69D31A022B01D9032336E01E4B1B68FA
:1056F00003F00073002BF0D12EE07B689B69012B37
:1057000001D1012329E0184B5B68FB60FB6803F4BF
:1057100080027B68DB699A421CD1FB6803F03F0280
:105720007B681B6A9A4215D1FA6847F6C07313402A
:105730007A68526A93420DD1FB6803F440327B6869
:105740009B6A9A4206D1FB6803F070627B68DB6A51
:105750009A4201D0012300E0002318461837BD46C5
:1057600080BD00BF0070004000380240600047422A
:1057700080B584B000AF786039607B68002B01D1C0
:105780000123CCE0684B1B6803F00F033A689A4290
:105790000CD9654B3A68D2B21A70634B1B6803F0A0
:1057A0000F033A689A4201D00123B8E07B681B6876
:1057B00003F00203002B20D07B681B6803F0040376
:1057C000002B05D0594B9B68584A43F4E053936033
:1057D0007B681B6803F00803002B05D0534B9B68C4
:1057E000524A43F460439360504B9B6823F0F002AD
:1057F0007B689B684D4913438B607B681B6803F093
:105800000103002B44D07B685B68012B07D1474B19
:105810001B6803F40033002B19D101237FE07B6860
:105820005B68022B03D07B685B68032B07D13F4B7F
:105830001B6803F00073002B09D101236FE03B4B81
:105840001B6803F00203002B01D1012367E0374BF3
:105850009B6823F003027B685B68344913438B60C9
:10586000FCF786F8F8600AE0FCF782F80246FB686D
:10587000D31A41F28832934201D903234FE02B4BD4
:105880009B6803F00C027B685B689B009A42EBD13B
:10589000254B1B6803F00F033A689A420CD2224B47
:1058A0003A68D2B21A70204B1B6803F00F033A68B3
:1058B0009A4201D0012332E07B681B6803F00403A5
:1058C000002B08D0194B9B6823F4E0527B68DB68FF
:1058D000164913438B607B681B6803F00803002B99
:1058E00009D0124B9B6823F460427B681B69DB0084
:1058F0000E4913438B6000F021F802460B4B9B6866
:105900001B0903F00F030A49CB5C22FA03F3094A8F
:105910001360094B1B681846FBF7F0FD002318467F
:105920001037BD4680BD00BF003C02400038024039
:10593000CCCB00080000002004000020B0B584B0EB
:1059400000AF002179600021F96000213960002159
:10595000B9605249896801F00C0108290DD0082965
:1059600000F29480002902D0042903D08EE04C4B31
:10597000BB608EE04B4BBB608BE04849496801F04F
:105980003F0179604549496801F48001002924D02C
:1059900042494968890908464FF0000140F2FF1466
:1059A0004FF0000500EA040201EA05033D4901FB4E
:1059B00003F0002101FB02F144183A49A2FB010166
:1059C000631819467B681A464FF00003FAF750FC3B
:1059D00002460B461346FB604AE0304B5B689B096E
:1059E0001A464FF0000340F2FF104FF0000102EAA8
:1059F000000403EA0105204629464FF000024FF05B
:105A000000034B0143EAD063420110461946001BD4
:105A100061EB05014FF000024FF000038B0143EAF8
:105A200090638201121A63EB01034FF000004FF004
:105A30000001D90041EA5271D00002460B4612190A
:105A400045EB03034FF000004FF00001990241EADB
:105A50009251900202460B46104619467B681A4640
:105A60004FF00003FAF704FC02460B461346FB60B6
:105A70000A4B5B681B0C03F0030301335B003B60C4
:105A8000FA683B68B2FBF3F3BB6002E0044BBB6017
:105A900000BFBB6818461037BD46B0BD0038024095
:105AA0000024F40080C3C90180B400AF034B1B681D
:105AB0001846BD465DF8047B704700BF000000201B
:105AC00080B500AFFFF7F0FF0246054B9B689B0ACD
:105AD00003F007030349CB5C22FA03F3184680BDA9
