:020000040800F2
:1000000020510020E9370208E1130208E313020837
:10001000E5130208E7130208E913020800000000D4
:10002000000000000000000000000000EB130208C8
:10003000ED13020800000000EF130208F11302089C
:100040008D3E0208913E0208953E0208993E020844
:100050009D3E0208A13E0208A53E0208A93E0208F4
:10006000AD3E0208B13E0208F9130208031402086B
:10007000B53E0208B93E0208BD3E0208C13E020874
:100080000D140208C53E0208C93E0208CD3E020812
:10009000D13E0208D53E0208D93E0208DD3E0208E4
:1000A000E13E020817140208E53E0208E93E020894
:1000B000ED3E0208F13E0208F53E0208F93E020854
:1000C000FD3E0208013F0208053F0208093F020801
:1000D0000D3F0208211402082B140208113F0208E8
:1000E000153F0208193F02081D3F0208213F020880
:1000F000253F0208293F02082D3F0208313F020830
:10010000353F0208393F02083D3F0208413F0208DF
:10011000453F0208493F02084D3F0208513F02088F
:1001200035140208553F0208593F02083F140208DF
:100130005D3F0208613F0208653F0208693F02080F
:100140006D3F0208713F0208753F0208491402081A
:10015000793F02087D3F0208813F0208853F02087F
:10016000893F02088D3F0208913F0208953F02082F
:10017000993F02089D3F0208A13F020800000000CD
:10018000A53F0208A93F02082E2234225721272129
:1001900023282921672246213E21772978292522F3
:1001A000522224212C2276292C28792876287A2874
:1001B0002F22212822283F212A282D282C292129B5
:1001C000232940212A292D292229242824292529A7
:1001D0002628262927292828282929282929302995
:1001E0002F282F292B282B292E282E292722302271
:1001F00028222B222A222D2229224125422543254D
:100200004425452546254725482549254A254B258A
:100210004C254D254E254F2550255125522553253A
:1002200054255525562557255825612562256325D2
:100230006425652566256725682569256A256B255A
:100240006C256D256E256F2570257125722573250A
:1002500074257525762577257825272C212C222CA9
:10026000232C242C252C262C282C292C2A2C2B2CF6
:100270002C2C2D2C2E2C2F2C302C312C322C332CA2
:10028000342C352C362C372C382C392C3A2C3B2C52
:100290003C2C3D2C3E2C3F2C402C412C512C522CE4
:1002A000532C542C552C562C582C592C5A2C5B2C36
:1002B0005C2C5D2C5E2C5F2C602C612C622C632CE2
:1002C000642C652C662C672C682C692C6A2C6B2C92
:1002D0006C2C6D2C6E2C6F2C702C712C572C2A21B1
:1002E0002E212F2130213121532254222521262154
:1002F000362247214821582179297A297B297C29CE
:100300007D297E2966224921352224276022652203
:10031000622259274A21772878287B287C287D2843
:100320007E283025312532253325342535253625BF
:10033000372538253925212522252325242525253E
:1003400026252725282529252A2567216821662194
:1003500069216A21552258225622592257222122E8
:100360002222232253212422542174217521332255
:1003700032226E217021442150212B217C217D21AC
:100380007B217A21722173213122452171212D2176
:100390006F21562141215521422143216C216D219C
:1003A0007821792176217721412251215221672814
:1003B000682869286A286B286C286D286E286F28A1
:1003C000702871287228732874287528672968296D
:1003D00069296A296B296C296D296E296F29702971
:1003E000712972297329742975294D294E294F299C
:1003F0005029512952295329542955295629572919
:10040000582959295A295B295C295D295E295F29C8
:1004100060296129622963296429652966294D2893
:100420004E284F2850285128522853285428552800
:1004300056285728582859285A285B285C285D28B0
:100440005E285F2860286128622863286428652860
:10045000662821262C2622262D26232648264726B6
:100460002E262426422641262F26262646264526A7
:100470003126252644264326302627263C26492693
:100480004A2637264B264C26322629263E264D263E
:100490004E2639264F265026342628265126522607
:1004A00038263D265326542633262A2655265626F8
:1004B0003A263F265726582635262B2659265A26D1
:1004C0003B265B265C2640265D265E265F26602650
:1004D0006126622663266426362646226121602133
:1004E0004322472248224B224A2249224C2263219E
:1004F00062213A22392265216421382237225F2184
:100500005E2142225B215D215C21442245225A2149
:1005100059214F224E22502251224F214E213C225E
:100520003D2240223B223E223F224D225B225C2282
:100530005D225A2221212221232128213421352103
:1005400036213721382139213A213B213C213D21D7
:100550006B2132213321212A222A232A242A252AE7
:10056000262A272A282A292A2A2A2B2A2C2A2D2AEF
:100570002E2A2F2A302A312A322A332A342A352A9F
:10058000362A372A382A392A3A2A3B2A3C2A3D2A4F
:100590003E2A3F2A402A412A422A432A442A452AFF
:1005A000462A472A482A492A4A2A4B2A4C2A4D2AAF
:1005B0004E2A4F2A502A512A522A532A542A552A5F
:1005C000562A572A582A592A5A2A5B2A5C2A5D2A0F
:1005D0005E2A5F2A602A612A622A632A642A652ABF
:1005E000662A672A682A692A6A2A6B2A6C2A6D2A6F
:1005F0006E2A6F2A702A712A722A732A212B222BC3
:10060000232B242B252B262B272B282B292B2A2B5E
:100610002B2B2C2B2D2B2E2B2F2B302B312B322B0E
:10062000332B342B352B362B372B382B392B3A2BBE
:100630003B2B3C2B3D2B3E2B3F2B402B412B422B6E
:10064000432B442B452B462B472B482B492B4A2B1E
:100650004B2B4C2B4D2B4E2B4F2B502B512B522BCE
:10066000532B542B552B562B572B582B592B5A2B7E
:100670005B2B5C2B5D2B5E2B5F2B602B612B622B2E
:10068000632B642B652B662B672B682B692B6A2BDE
:100690006B2B6C2B6D2B6E2B6F2B702B712B722B8E
:1006A000732B742B752B762B2124222423242424B2
:1006B000252426242724282429242A242B242C24D6
:1006C0002D242E242F243024312432243324342486
:1006D000352436243724382439243A243B243C2436
:1006E0003D243E243F2440244124422443244424E6
:1006F000452446244724482449244A244B244C2496
:100700004D244E244F245024512452245324542445
:10071000552456245724582459245A245B245C24F5
:100720005D245E245F2460246124622463246424A5
:10073000652466246724682469246A246B246C2455
:100740006D246E246F247024712472247324742405
:10075000752476247724782479247A247B247C24B5
:100760007D247E243129322933293429352936291B
:100770003729382939293A293B293C293D293E295D
:100780003F2940294129422943294429452946290D
:100790004729482949294A294B294C295F223128D0
:1007A000322833283428352836283728382839285D
:1007B0003A283B283C283D283E283F28402841280D
:1007C00042284328442845284628472848284928BD
:1007D0004A284B284C2868225E2249274A274B2763
:1007E0004C274D273A273B275C275D275E27362776
:1007F0003727382754275527562757275827212783
:100800002227232725272B272C272D272E272F2765
:10081000302731273227332734272727282729272E
:100820002A273D273E2765276627672768276127F0
:10083000622763273F274027412742274327442732
:1008400045274627472748274E274F275027512718
:10085000522753275A275B2763226C2726276027B6
:100860006F2761223C276D27352739276A276B2799
:100870005F27642264276E276927696C4B6F527665
:1008800032585B6D325F3E5F3B79745C64752673F2
:10089000605D2661784E305C2A6369717A4D2F7CE9
:1008A00021532B7151672C52794E7D713F5E3A7BFB
:1008B0003979524E2B63606B7A4E774B2565614ACE
:1008C0004C54616A635C2D5F6B4B2F557556786590
:1008D000405E236C4D69276A76693B7B69674C6F84
:1008E0006650415E2C644C5871795F4E247A3266B2
:1008F0007B7A3D7A484C4D6F55552253516C276495
:10090000526C31767B4E51503F4B246D286D425EC8
:1009100062765C6D755C39604E5435745B53355648
:10092000246C66646A716C4B404B726C6A507279CD
:10093000256C5F506A676B50515C695B4C7D575BFF
:10094000615A36565F63435E445E214A6C6E2353A0
:10095000376E4F78486A386E2C7125714E693C7934
:1009600079656A6C565D426D25783A65585B224A16
:100970004D516D6E6B6C455E6063494A69724E55B0
:100980003676424E475634632D71626A425727735A
:100990006A4D6E6B3259257D557662553578754CAA
:1009A00035752D646B6755713B703569494C557AC7
:1009B00054615657415C465E6F7A61637361765C41
:1009C0007C4E445B7178645C6F65315C56555A733C
:1009D000414B435B7A596E53387A267D6F6B267490
:1009E0004A4C28735B73275B3776664F72705A4B9D
:1009F0005267435770765E6826656765234A274CC1
:100A0000496A3678257A2E714E6F6D4B30764F6F6E
:100A10004F695E77534E775C285B784B215F615D51
:100A20004A7536696C676E6E70733F5F4B4C415010
:100A300052743A60405F604E525C6A7D76564A6AF4
:100A400069682C635073244A785B475E706B5671FB
:100A500062654C4C7B4B636A415F6D565069396EE1
:100A60006355535170653468436B2A6A7C7A767596
:100A70003C70547D3B60434E3A503A7773584D7703
:100A80002E645F5467507D6C2E526F6E5755646AAA
:100A900022786B4D3F57317B6C4D325C6C507D4EF4
:100AA000706E424C6D5077657C73226E335974586A
:100AB00037692E4E225971584F5427655255295681
:100AC0002274577158553D70505750544F576A6BA8
:100AD0006B7D6D5B457C424B557D48746A687375D0
:100AE0005E796F53536C425D376F54674A4A7B5946
:100AF0007D7A2A56787477772C5C5757225F3E4E62
:100B0000705324706C61674F4B73296D3E4A6F744C
:100B10004E767B5E3B503755716E2874785C274B60
:100B20004E5A6660256D726E795C5C795C73727882
:100B30007974717C3C50795B31577C4B25707D4BCF
:100B400074556D4D254A2B5642503E703D52244CF3
:100B5000367A4D4C7A5A4F76386975584E4C4D5707
:100B600051546D696B4A6259327D2D634C5634592C
:100B70002761536E4350337D6455684F436D325047
:100B80007E4E285A5078567D51785278535C625D7B
:100B9000797B415D35635D6D444E214B635D5D7CCA
:100BA0002F797B52214F286436747E6C2E636D67DB
:100BB000417D625A3358645D6F707176707A7551F9
:100BC0004F5A545C265C3F6F4F4E59605659546CD7
:100BD0004B6A3F4A3055694F6D714F4C78646D6474
:100BE0005857277D2B6A3276704F3D7974665B4B80
:100BF00051735169297360505269635A5262227667
:100C00007461645A55673F75224F2F4D234F304D05
:100C10007E7123502F612378264A3B776A72485EA3
:100C20005369495E5E7D404A6A794E51546E525412
:100C30002359287D59574E773E7A564F7057616B2E
:100C400045787A5C435D5F796F67657D23767C5973
:100C5000297D6E676555506F314D22773271317144
:100C6000324D2B5A274A62633C7B24593A6E5378A3
:100C70007A7B244F7B5C63762A6D2172614E267AE3
:100C80006079566C6E6421796F7B6B79236E2C6A68
:100C9000284A7A74564D767C4974547826784A5E90
:100CA00046725A5750534558666A5D735A64647663
:100CB0007276425F7D59764C3A532F646179267083
:100CC000534B3C604A747A542A7D62793774427D72
:100CD000307C6C7D624A3D7D676A435F5251624E53
:100CE00024532B7D605F477270676E502A734B5E92
:100CF0003876756133712377294A254F445F306117
:100D00003F7024763663467A6F506D7D445D777C04
:100D10003F662D5E3F7A7165446D25526E7D367556
:100D200076614C5E5E7C576C5D4D3756334D557821
:100D300058656A4F504F4C6A2E6A2D6A715325537D
:100D40004F77246E2450227270502372787733507C
:100D5000295B3B536C4A2671554B67775E4D247770
:100D600040785D53504C264F737677615C537E7AA2
:100D7000277A596B274F2F6A6F6439695871585811
:100D8000726034667C5C717350637B72465B715039
:100D900072505C4F5153314C5877284B3C6B3E643A
:100DA0005C74425C277040666D4A6B686865435CA2
:100DB0005E6D7253774C544E2B67434B31613277E3
:100DC0007353525340755D5F736E7167347D487223
:100DD0005273746E5362514C6A5F3A6957594D753C
:100DE0007271477A785942546576455D72675F6DD6
:100DF0004B4A7A5B35682653357D497962643D7B81
:100E00002457454E554E66563D654D5E736C606D7C
:100E10006C6C3E7B6B5F78613E7973502A606268D0
:100E200054627D52286553595E5338743C777D5C1B
:100E30006C6867647763286C717A726574502F529E
:100E4000655C25503471317C784C465D517A5F7712
:100E5000287A756E4E5E73672C77446B616D2B60DC
:100E6000475D33523F524C4A3F7B7D65655D4D582F
:100E7000746C75506D685250585966762A5B60776D
:100E8000595823745D74516F35592B6D37633B6E20
:100E9000344D73604D6A756C6E68294B2F714D4AE5
:100EA000296C6B726F7D73794166586C2C6D4E6A3C
:100EB0005F684F5E265274675651426663633064C2
:100EC000345825765E73255768774668667B665D7D
:100ED0007E5C5A582C5A306A38632A4A7961316AE2
:100EE0006C726E7A556E74796C527B7B707D3D604E
:100EF000634E46782E5E455F3E652D6D6A7A6E4D77
:100F0000266D2E6D6D70215D2F6D787C6B58794C40
:100F1000354D297A5D6155624F6D225D4A79686A67
:100F20006D656B5354697A614C64646147685B4ECC
:100F3000555C3577737C73702F4E3571526F4868EE
:100F4000716B544B3E607863696A327C7460604FA9
:100F5000256E2A7A436632612B4A64633B69566286
:100F60007273566E326A7650596C4B5A284F235D15
:100F70005B584E79556951633C522C584C737B4DEC
:100F8000567675676F6879633B5273737B63505E07
:100F9000304E775659714175445C3B75515E665CC5
:100FA000525E626D766E4F6A6E707C635F537453EF
:100FB000336134615374465F56692B5B267639631F
:100FC000456B2974364D79522D5A6352514F5C4B03
:100FD0007A4C5D4F29683B633A635A60776E335CA5
:100FE0007553265735765B5755616A54235F5F7D8D
:100FF0007750546D2A4B5B647B61224B60533F6496
:10100000407B3E5A4D643956406F7C613976475F6C
:101010003164675C685C567A76535A71727A7D6285
:101020004F5578505F4D4B7570642B4B44577E6223
:101030005A5D2E5A6E4A3955216363682B73294FC6
:1010400077537154644E726875652E673A566C5FBB
:101050004064646835585C64397436715E62356129
:101060006F4D2771654E5D4B63592C7379502B6C16
:10107000535E697775795E616E4B3C6356786E5B43
:10108000717D36775E746D72595B28707D61545E38
:101090002C60636D6153485F36592C7D536F4164FA
:1010A0006B782C5B467C2D583A765F5B53534778C0
:1010B0004E4A41783452345C397A4F4A337C6A6AFA
:1010C0006B6A7A50646D675D495F6D5F3C6E416F1E
:1010D000524C245D4A5F78532871374D546F5D64DC
:1010E0006E5F2C4B3C696C6A4B5F3F792F564655BF
:1010F0002A4F294E78563771786E59595F73487860
:10110000464E665566744566556F6F4B5F7C275C2F
:101110006756497852633D63614F40705A6C575D22
:10112000707B2C6C2970577A417B40523065656D1D
:101130002D4B307925772E4B2F5A36582753327B3B
:10114000447D2D6C217B69656E6974737378417081
:101150002F5E307860732F672D5B35662879585D78
:101160005968566F62535F62607C48572D7D6F5F90
:10117000534C79537054475B555E747050555965A4
:10118000477C565C6062305A23736C534B74457DC8
:101190007D6331797B505B6C3C7524724E584F589F
:1011A0007775617637526C7B485D68644152577839
:1011B0003B56565E3D772E6C61507560336A564ED5
:1011C000254C766C61623E63487C704D7679705F29
:1011D0003F653F4E617C306D517D3B764F795A6B58
:1011E000414A3852714D5363667D6D667A632A7049
:1011F0005079627C27786561796E76676D6A347C98
:1012000042755C577570685D6D537C753F5A7B4CB9
:101210007A532474576F4354637B6D7B2D606E6AE1
:10122000337B426467765D524C5F497C296576600A
:1012300033767E61704B6F6A706A405A3478726B95
:101240004364576971646F4A574E4A7C6173444BDB
:101250006563454B346A3D6949575B6B316D434C5F
:101260003E774B7C74783759537354736477517756
:101270003758314E424A347B464B76706755506A38
:10128000544C2F4B2A742F6943755869695D7371EB
:101290007B553B5E7B74737D727D2677495D53542D
:1012A000284C415A554C64594A7A63653C53704AFC
:1012B0004450504A2B7A6B6B7867655957512473A9
:1012C0007B54637C587A55732B4F736B7C55545306
:1012D0007C4D665979622162546B776032647C4C34
:1012E000647B2B743D50714A386F40577A6E747D21
:1012F0006353427B68552E5B366137783F60437B92
:101300006A5D2262266E687675764A5D6250265D59
:101310006B5D79642F637C507C743C4C6A776465A8
:10132000715F61777779396F5878297959783D6E8F
:10133000465863644E75595D675939524355655A2D
:10134000505A5951584E5E4B2C747B5A69767368CB
:101350002C4F70707D74485B404E54634F517571D3
:10136000724D6B4F384D26635A51257226724E646A
:101370007B5329714972586F49663858737A3573AF
:101380002478735148665A78695C575E5F4B6C4F9E
:101390005F7474513A52725F376123627C53666D99
:1013A000495B7A645E4F504E535575732E77486F84
:1013B000734D4F7573654270514A716A26505A5980
:1013C0002B70676B4065357C4464294C467D356ADB
:1013D0002A653A5F5F61515A386174687D532462AF
:1013E0004A72665A33774D7D3673576E447524586A
:1013F000277238593959496F4E564B772E5F7568A9
:10140000355255534C747C5A68596B7749753C7307
:10141000525A355336684F563A7449772A4C4370BE
:10142000564C53503D537B5B604B645377763A5533
:101430004D73614B746B2D742A7C6C777668675A98
:101440004C7741656E607D55664E2B7C3B5528720E
:101450002562394D726A474B744D2F5B596F3A4D77
:10146000797C735F674E425A2D4F79672878627393
:10147000724A245F4454574C42653B4D5A6F586E34
:10148000275D2662406030564A787A7C7E59305E0D
:101490006C5D685A60547956574D585E7872566440
:1014A00045502E74285D456D5673595E666328530A
:1014B000305B5A653F63315B695541605B6F6970B2
:1014C00032577D5069597E506D6C29532972447092
:1014D00062626F69517959695A68435A445A45544E
:1014E0007A67604D3063325B447B63732559677B59
:1014F0004B5D545036662E605A7D355C786031679E
:1015000070755C58466D39614063407970695B590C
:101510006473365C6964457041634C7C4D7C4B72EE
:101520004C724F645B71597A3871757D79607B6755
:10153000377C647C457B676339587876455C584CCA
:101540002F6067745C6F7C4F5D6F2A723E7D2C4A02
:101550003B7D477D3267516A745F6C515E644365C1
:1015600026593C4D6573556D3A59676D357B6C78DE
:101570006760594C4654256775553E537B7C7264B1
:10158000755F78686D78474E767D5868584D566718
:101590005A4C634A765F477046703A58747170745B
:1015A0004C75657C456A736A5B5D575C7D5E7972DC
:1015B00047555058487021512251545968564A593C
:1015C000315A4758625C4E7374753971535A6A7652
:1015D000754F2E7D524A345F5D573A7A276E3D75BE
:1015E0007578686D61542351566178794A5B794BFF
:1015F00054545C593E6E6D776E52666179776D5DBD
:101600005B68335B775130606254577679575D5829
:101610007D4D2B723D4D42782C722D4A2E4A2E4F15
:101620004263375C5A5B3B59734A53767866756AF6
:10163000766A79762F4F534A2F4A30523A71335790
:1016400043637D735A5E5B5E5E6F63627B6E775F42
:101650004A57684E5B5B3B717169377A46502B4C39
:10166000286E7A4B79797D4C7E5350646E72555456
:101670004D5F387C50514D725277544A59555E58DF
:10168000594D296E3C765B4C49707C7C49687E7470
:101690007C675E575C5E2C707E4C614D3A616F5B7F
:1016A000325A2551385C76582451624D6A5C777005
:1016B0004A703E505C5D56545653506D214D355F17
:1016C000785F2154324E4A68756B556350752175A9
:1016D00027592B654B667175456523795B606B7681
:1016E000714B6A59227551577851786A796A335A21
:1016F0005F6F6F7176653F6E64623F502C7A5175F3
:1017000033673E694E72345B4E7C6E5D346734578E
:1017100034773E4D695A304F59776673594E2A4E89
:10172000484B27504B7047504564605B5A552757CC
:10173000406E76785275696D3C5946652375545AEA
:1017400027627C7B5C71744A7A68694E786965624D
:101750003950725426514E5F747C2A532C4C606F62
:10176000656555507C5B667C7E4B6A6D315E637946
:101770002254764F50566A556E714B7A2165315519
:101780006D4F6B6D32553C55627D2D735B7D3069BD
:101790002751637D334E647D4E7A304A2777314F2F
:1017A0002266367C2D72616F2E73465C6B596068C1
:1017B000286176557D4F5D5E51596A644F723F775F
:1017C000666228625663516D79693156325E68608F
:1017D0002B535C6B2F5F434A7C6E437D766B324F9D
:1017E0006C593D595F5838543E6B6F5D705D715D4B
:1017F000725D3E59467B334F7D6E2B64455A6C5863
:10180000285129623C5E3567705B626F7071344F9E
:10181000715B3160255F52797D672366717B304B48
:101820002E72674D5C68576740776350215A3D4C74
:1018300029514C5D7E632A512A68366A7A794C6652
:10184000587647544B5952594B537758295A787503
:101850005E5E2F7229784858416E4179735D7A6ACD
:101860003D763B613F4D54744D664F7C227B5C60FE
:101870003B74555A3279727B765B5F5E725B5C7843
:101880006E77686B7A523C715A7A6A5A465A417737
:10189000366747652C56475C29612A62265557549E
:1018A00050727B6A5D60737B3D716762577D484E05
:1018B000376A407C677D6F7735573A6F5D71335E6D
:1018C0004B685D78477B48555F57295D31692D7AB4
:1018D0005976747A2A786E665C4C3C616F603F6919
:1018E0007D7C4E6657614F66717473647B64647966
:1018F000636F6E4F3E7632607E7C2B517A57487B09
:10190000576223547870285767613F53646F455777
:10191000626B677C226468625066687B6874746579
:101920003C745574365F397C426E754A656F624B04
:101930002454605E7D5A46643E685E603476526A26
:101940007B794260644A37677D6A5D59345A2A6EF2
:10195000697B4B5B355A3E712C53497B4F5F40533B
:101960005763666F507C406953755C6C3777386A93
:101970007951485C396A5E713657354F28596E6C1B
:101980002A5D224D2E683D61517241697C52355B62
:1019900067737E58517C326D2F74237B417C2B6E94
:1019A00025547274596E4A7B634D3B585B6577785A
:1019B00054762957494B51664C702E5853797E55B1
:1019C0003C5830722B626873426F6C6D38677E5A78
:1019D0003E4C7C726B5A5862566D51563360527C45
:1019E000486B41534D70774F526D5854495C715755
:1019F0003B5F25734D743F7131787A694B7B554A53
:101A000054794A774856687C3D737E6E7E674253B0
:101A100036532D4C7A7632565852586725633967BB
:101A20002D704C7B216B26544D7B3D555F717B7631
:101A3000345E6B554865247B3954615E23643757A7
:101A40006E78355E525655793A67556B7755676FA4
:101A50003E612E7A69566E563B674B6C3355344E59
:101A6000257B6E6128774E7B3D587D7B697C364FA8
:101A7000476D2C6E5D4C27767A6624755C7D336DE0
:101A8000494E686F3F615B7A634B2977267B395CEF
:101A90004071486D436F2D564E7D2168747B2755EC
:101AA000767153665E4C32786B5C367D6A65607128
:101AB0004C5B4D5D48546D5925757B665466487D79
:101AC00021563F7D537C216F3C676E51556672698C
:101AD000305F60583A7C2F7D4E70615B4965346D94
:101AE000436058637B69286A377D277B4269777D2D
:101AF00059626C5C22687066787D797D3F762767D5
:101B00005766735449547A5672574061625B5866FF
:101B10003D674F703E732C6237757060387D686327
:101B200027547C68527A6F785356345550707077CA
:101B3000336E3A6A536A496D2B5D2C65217D505F87
:101B4000336C515F6D6D38787A772B7860743A54C6
:101B500033645A69365E3F5940596F564C592A5A78
:101B6000655F6577324C795F60573B547A7D334CC3
:101B7000735B525F4A4E5A6E64644F7B374F436EBD
:101B80006A4E2D626157757A49552C785967697389
:101B90006D584463717065687A60446E5E59226B5B
:101BA000236B427C3B6A2B68625E6F6D2368714FCA
:101BB0003C546A7C3E67727C34562E6237534C7AB2
:101BC0005C7A356D63612C685D68696F3D74384F70
:101BD0005B692C51475A496B4C68375E3C566553DC
:101BE0005D7A565A314A485A265F33795272444ACE
:101BF0004B4E754D307D2855417169624A5C346C9D
:101C0000407A287B28506C5A6E597B606A6F5E7AE6
:101C10004460394F4A5562572F6238574D685A769B
:101C2000226F5A627C76507B2D51644D2E516D5C33
:101C30004E687970354E7C667B575650755D71776E
:101C40007D76775B6A7B5C69415972754560546A41
:101C500042793C6A4552517B4067256B7A5F22632B
:101C6000395743697D682F685372297B25584B5536
:101C700048502F51635746602256706D7357547CFD
:101C8000575A5F4C54723051604C7D5B3F735170BA
:101C90003B7C306225665B625E5F47606F72614CC1
:101CA0006A564267364E40737E4D527B78787B771A
:101CB0003F683768366D3A5C344C77713868764ADD
:101CC00024645674665F275F675F416144694B5CBB
:101CD0004569236F266B234B69637B51246F6B6FC0
:101CE0003450234D6668256F4C536D5A3A575572E0
:101CF00065756F59347954554F7D635B6171366CEE
:101D00007E7B57533151314B3251324B42716174AA
:101D1000357943614261776B285F4A4B39665E785B
:101D20002A79774A376D385356725954456E707216
:101D3000324A3B5C7871376C4A6540765D7D63540E
:101D4000624C54776557435326584176765D404D33
:101D50005C654B654461306830746A736E5A3B57FA
:101D600031622A577B565F64564A286B7E5B427607
:101D70003B6F7D5448603968266F244D7454215B55
:101D80005C5B5D5B5C6E4B4B557C6B4E414D537B9E
:101D90002B79547529595D694D5B4E5D43674C6CD9
:101DA0006C794C4B7C602854536D6F585772784A4D
:101DB0006F5A54564D596E584172535F705A6A6249
:101DC0007D6078582F77365A574A587279585F7A1B
:101DD0006F4F4259527051643773607A6C6F326240
:101DE0003D544E5962742954424D5A6759722A59CA
:101DF0003E582D5C6B627C56794A5A545774214C7C
:101E00003A4F3875435968504563786B31723B4F90
:101E10002D5361686C4E3460635E775D3272767309
:101E20005B767E575F78727729505A6626753C57E5
:101E3000634C5B665D5D33516D6F5E5674646F61BC
:101E4000785D4F68654A215C35602C7C2D7C275875
:101E5000386D365B70562F73254D715A2858644C77
:101E60003451584A725A2775287526666C5578552C
:101E7000735A4663645E655E35513651375133722D
:101E80005E69537034725470644B547B66756A6338
:101E9000665E545F79782E7038515F565750217CBA
:101EA0006E6F585C5F695D657B7D496049562A5459
:101EB0004C6560695850227C3E543362675E3C5CDE
:101EC00036525575214E2975795D7A5D55705F766C
:101ED0005A726B647172396C7C7D2A61594A6F6FDA
:101EE0002A75796C2D784272437652572279567052
:101EF0007A706076736943722B54334A264D434D92
:101F00005A4D4F5944765D6E44673462625F5B6739
:101F100031682E7C4D656B7A3C4F624F764D706F09
:101F20003E744D543873216972726B735770574FFA
:101F30005F4F40684168634F22692A5041732B50BC
:101F400064543C6F21585F5957733D5C654C716D0B
:101F500062715B543562664A2E53664C53716775E5
:101F60005A4A6E7B4561695F5E6E427722582C5DEE
:101F70002F703D562B61367975544950276F6C622E
:101F80006A5B4C4E687555774D537E7335507E6055
:101F90007B5F5D6624684D4B286F346E585A39510B
:101FA000295F3073444C374E296F555F576D466E2D
:101FB0003D6F567C745B2A6F397869755963466149
:101FC0003F54685E6A7042732F535B4A577C586D6A
:101FD0004761587433562D5D3E5543715F6E6B56A5
:101FE00059746657375A7B5D4F5D2358595A58705C
:101FF000446F58615471726D5B555C554473574B17
:102000003662716F557B5853505D5970334B5D5537
:10201000274D2C503A5144713365757B6169607D61
:102020003C7C225A235A21526F526D62695E5C4E8B
:1020300035726450515D4861375B635F396D45713E
:102040004F732B572C616B63476E49617A4A7B70E3
:10205000617A5A70674C745A3F4C6D4E2955627ABA
:102060006550566B5F6C7C5F56776A5E344B3E6F93
:10207000354C3D4F726F3762684C7C7060564671CC
:1020800038622B6B354B51584E74777346573B5122
:102090002A774A6D53577A5845764C517C5D7D5F5F
:1020A00065794A607D7230537374495A5E663A7836
:1020B00050687B58556A235646765B727C6432685A
:1020C0005A5A5C72567B32692D6E637A6E5C6A7501
:1020D00060667D702C574575606E655B5E5D7059FE
:1020E0002369797144724B602469396231636B7C76
:1020F000284D364C5B703A66294D437359612B6FFE
:1021000045676960457340543F552E5D7C79404C6E
:102110002265384E525856792A71514E47766B5B7C
:102120007E5F6158737767577E543C514F65364BDD
:10213000385A444D3E563A62584F4C60796B7D7D1B
:102140006857584B62693A6847634D6C4E6C3F560E
:102150002763565F687D616E28767D5D3B785168A8
:1021600057796E4E4F6C25695556454D3A6D3D5128
:102170003E4F3B6C3152694C44597C693E513C6C3A
:102180002D6530776A4C445340567D5621613D5E43
:102190002976245A24564675226146694572697427
:1021A0006C56536B3D6C5C626B5E5C703F6B4E5764
:1021B0003F512B757D795C4A464D36727E5D374CBA
:1021C000385B69505D4E406B227D4B78566A3071AA
:1021D0004E5B43774F5B244B6078577B4A6B2160A3
:1021E0004D4E5C54587D76523772767A2A76777ADD
:1021F000665831745268454A6B4C6E623B622D776B
:1022000061786C73215E7D646C632F5D305D374B4C
:102210005368236160527E702669724B736D595CFE
:102220004D605A77395B2E4C5B5A474D315D2F58C4
:1022300023636F4E737233784E607D756C6B4553BC
:102240006C7C5B526B54225E666530704455746DD5
:102250006D634268756D7C573B6D2B76387248769E
:1022600066535D723F4F2C6B404F2866697D414F2E
:102270005F606C5E22603F746F6271594771384BCA
:102280007E793A5B755A6C765C5A647A4F60325D3F
:102290002966736F6D737A6B66795D4A5E555E4A27
:1022A000645F7D662C75756463694B6D644F53582C
:1022B000335D6C543972375F4E4B587B5950525DC9
:1022C00074775C672564237C3B5B3A727D694A5076
:1022D000567545593464276D3D6A7E6644772D7581
:1022E0006059344A6278424F3E6C3465484D486EBE
:1022F0004867494D377968717259755B354A465957
:1023000049582B593C6D54585A5C3C626D7C606C4A
:102310007E5247692A6670623B7A2E752A7B7B6CF7
:102320003F6C587C65544379626E6957766D6D5E7B
:102330006C4C6E635468787A345D35643058555807
:102340006A74394E6156524F3650224E6E7378730E
:102350004C5C4B50247C4A4D5457235E6064496E5C
:102360005D627E752C54515570584378576A577585
:102370003F58407D2D6B2A5528674A6E674A63781F
:102380005D54586A597B776D35652D5071713D628A
:10239000486355592A5F3C5B64787A7136656F7380
:1023A0005A7B60612C596B75366048694F4B4963A5
:1023B0006E5E3E626F5C255671627E5621594058B2
:1023C0005B5C3D6D385F256A2D577973786D477575
:1023D0004A61636B5E724C78596A4653665B2F752F
:1023E000704E7E69367B7262724F397773594B61DA
:1023F0005D5A395A7B6B394B796D606040743C7D16
:10240000315F6F632360397D31704B4D3E6D4055B8
:1024100070637A6D64696D555D6776543765675B87
:102420003F624B6E74575D702B4E5E6756564C6123
:1024300033686E65225C5060355521555B7B4B7966
:10244000734B2574487A575665695C7B507D767B63
:10245000255A3D5B626C774D5E7049766F5E3153F5
:102460006E7C43684871714E6D797472366439754B
:10247000705C716325683B72245E4C5A694A5A63EA
:10248000597C5A6A447924635D7B4A6F44684C5591
:10249000576B2D592B7B595322555E76765A5160D6
:1024A000286979752F7A7C6B6A6032634555637150
:1024B0006E554C4D596D41586C7A6B713C7A626621
:1024C000657A7A62364A37645B6A7A752C7B434F49
:1024D0007D6B7A78395F716124527B755A505B50FD
:1024E0003E6A3159374A67536578325340625F72AA
:1024F000654D2C794D4D2E6E2E566A5760672E6BAA
:10250000594F4D5C7B6D705E6B57255E575F505B1E
:10251000515B235532705C5C684A66784E5C5C6A3D
:10252000525B33695B7728632E5761603A4B516584
:102530005C5041554A5829632460296947535D5CC2
:102540002E78384C2E5072584A632F4C2D545176A9
:102550004C50464A42553A4E474A307A585F3A758F
:102560006B65746F355D2A4D7263777B50773A7D6A
:10257000617D7E764051456838646861414C6D529A
:102580003E5B6260497A4D61384A60724971715EA2
:102590005F7044784C6E725E4967736261674B632B
:1025A0004C63784F2C6F7E7D257C317A595F526069
:1025B0005A744A71234E3C72636C25602B772F6BE3
:1025C0005E6524612B4D745926684E4D69616F7CA0
:1025D00063604162244E265E7E6B5D6B60705B744F
:1025E000746248536B74356E58755F556556306B21
:1025F00063744D637474327A756F5F4A316B3F6DEB
:10260000497D2664247933706C6567514759576456
:102610005D6A77543A5A4D5A4C795A613F5B454C42
:10262000506C3B4B735E2A694859636E3D57444F6B
:102630004D50267C7B71527D41515B6349534F5C09
:102640006D4C275E3B66216C394C5E7B6267415462
:10265000285C426258735365597346735B4D2C4D29
:10266000437C67544251257955684E634A545A5FFA
:102670005F7B63677B784F633075675849592F7864
:10268000766F365D2F6E784D385E277C7C7731779C
:102690003B4E21744D6E2E61436C7E4F3F786258E5
:1026A0006853285E6474426C75594579535D715660
:1026B0007C6C707C406D394A646E6172395E725612
:1026C000745E5B5F535B677A63584174375D757204
:1026D0002E547356385D454F5F5F3E7221764B6BCB
:1026E0007C7147736B607C6D5B61656E755E537A60
:1026F0004B712F50395D43513175466A61702C76AC
:1027000059756B703A5D3F724577225B76723A4A33
:102710007577654B666E5360254E58562F54496940
:102720004E534274664B2171326B2271336B34709D
:10273000744B30543273377B6C75676E32746D75C1
:10274000734F62704E6E4C71386575577363654F89
:10275000464F33735864794F5A4F4D7A63666272AD
:102760006E753B4A5C63724E5956306E65744258C2
:10277000505C6E4C60554A764A7D56584F742656CA
:102780003E5C545B47577E724D7143625E5C5F5C9A
:102790002D6F2B665D793F6A2E6F5074734E2C66D9
:1027A0005E4E79557463504D38557D77295C765E61
:1027B0002A5C637234695C52666976634A674E507C
:1027C000775A3C4A686E5E5A77727B62264C3B5A57
:1027D000696E5A755C776A61414E3154317D3D6650
:1027E0002D7B67784E6162776F75474F32546F4C1F
:1027F00068544F6E5777266041565C616370647110
:10280000715C275675744E71647230506F6C3A79F2
:10281000356B6D5444626769346B216A3C78264E8F
:1028200046795A7C335439535E6A2B6961614F5340
:102830007674406A4F613A4C6A6E647034736E54B9
:102840004072657143745460366B2157684B2D7923
:102850002D696458337A45623D7C446C31582B5C59
:102860002455696B3B6857582E7B6151405B3E7520
:10287000775E7B4A4677484F5061506E7469744E5C
:102880004D555B4F3B5D2C4E6869345447645B7516
:10289000417A295E7854776F3353376B786F5C7564
:1028A0004C6D555B4F71507132752E592C554662E7
:1028B000237D657B2B5F75622D76337535702561C1
:1028C0005D75226C7D6D3475387B235B4A56594BA0
:1028D00054657A73386B37606C576C712F6561552E
:1028E0006D5751517261796F3C5D5C7665704474CF
:1028F00069697B736F54224C7E773C5F4D6B375018
:1029000042562D682F6F254B694B687A464C676697
:10291000476A245B494F7C627A6F5E6B48755E54F0
:102920005560306F47622F59677965674A4F51612B
:1029300048627B6F797A725C276068786A4B3C4B9F
:1029400062565E755F75366E76624A537C6F44518F
:10295000316F45515E5061593860514D39734C6744
:102960002856274E355448643453396B754B5D7681
:102970002371474C4A69706160752F7B514B607BB6
:102980006572706C6C706B6E4B69704C2F57217355
:10299000757C24715660326F5174217751717C4A75
:1029A0007D4A4E4E48733A737E6D265A6C604D7860
:1029B000524B4E6B58795979604A4A5A264B484ACD
:1029C0006E796C5B31506F55736622675964616430
:1029D000447C6F79744F66773C4E4574235C3D5D53
:1029E000467421785668415B667039646D762E793D
:1029F0003E5D305768583D4B5A794E7870796D601E
:102A000033633374426A66723670565B646B677206
:102A1000555736546879415755656A694C5769531B
:102A200049625B7C2D4D304C226A76644050377091
:102A3000216E76574A624B624F7A5F6B4B56347405
:102A40004D6D5264296A3A642273524D4B76667119
:102A5000416D3C68516E67704C622A6461755A6DB5
:102A60006E5771516B696C696460275A545D236AB3
:102A7000435674565F5A336F4D627D6F6872456F6F
:102A800067677D574E675C5F477976592C5F5A566A
:102A9000245C38707A55776444566C747E6F21706C
:102AA0002A5E3C5A7C58547A656C287C666C4B587C
:102AB000397B5364794D534F6A4A544F3D7847747C
:102AC0005F6A5B793754656B5261246A427A617B35
:102AD0006D7A2270714C237A77624E6275696B61F0
:102AE00068675768785A4B547677455669547A7AAE
:102AF000724C5D773A5E284E39707E644964546446
:102B0000436A346F3E57627B534D356F697A26793D
:102B10003D5F47777D787C782B5E685B5D636261A3
:102B200046515076666B795A476C785E69785E6379
:102B3000754E437A5765486C49733B642E66366F11
:102B40003F5C3D4E43584F507A4F4A735760475150
:102B50002E693D68447A4F62457A3879605C307BF3
:102B600029585F6527796E764C767862716C605A69
:102B700052714C524B4F3D4A3F5D6F76795E347ACD
:102B80002D5567713E5E405C485149513E78764B09
:102B900079546275536169587E784C4F247D764E26
:102BA000507A734C3E662E7670554A513E7C715574
:102BB000694D357A50627774544D2367255B5162B5
:102BC00022576377266A21505A4E6B7B265B5E5BE9
:102BD0006558606A2A5860655B56466F6A78556426
:102BE000774E58606F576D74664D744C63754A64C8
:102BF000615C48793F7C276844583E4B2E5C775790
:102C00006870405D4D4F735C305969663C64446A3E
:102C10006C646564787B3B4C3D645C4D77595F5DCB
:102C20004E6D505923654D792E4D4E4F2F76537D65
:102C30006D6B5C56246536555D566979246763561D
:102C40004B51645672557A5E78576A58554F7D5885
:102C50002B584B7D5C7C28607355597D234C7959EA
:102C60006A537575476F5A533D5A28682F5C237015
:102C7000554D29602C5E3A70316E326E4D76526E33
:102C8000465665603B7361654B642357425B7E4AE1
:102C90004F4F21302230233024302530263027304A
:102CA000283029302A302B302C302D302E302F3048
:102CB00030303130323033303430353036303730F8
:102CC000383039303A303B303C303D303E303F30A8
:102CD0004030413042304330443045304630473058
:102CE000483049304A304B304C304D304E304F3008
:102CF00050305130523053305430553056305730B8
:102D0000583059305A305B305C305D305E305F3067
:102D10006030613062306330643065306630673017
:102D2000683069306A306B306C306D306E306F30C7
:102D30007030713072307330743075307630773077
:102D4000783079307A307B307C307D307E30213184
:102D500022312331243125312631273128312931BF
:102D60002A312B312C312D312E312F31303131316F
:102D7000323133313431353136313731383139311F
:102D80003A313B313C313D313E313F3140314131CF
:102D9000423143314431453146314731483149317F
:102DA0004A314B314C314D314E314F31503151312F
:102DB00052315331543155315631573158315931DF
:102DC0005A315B315C315D315E315F31603161318F
:102DD000623163316431653166316731683169313F
:102DE0006A316B316C316D316E316F3170317131EF
:102DF000723173317431753176317731783179319F
:102E00007A317B317C317D317E3121322232233265
:102E10002432253226322732283229322A322B32E6
:102E20002C322D322E322F32303231323232333296
:102E30003432353236323732383239323A323B3246
:102E40003C323D323E323F324032413242324332F6
:102E50004432453246324732483249324A324B32A6
:102E60004C324D324E324F32503251325232533256
:102E70005432553256325732583259325A325B3206
:102E80005C325D325E325F326032613262326332B6
:102E90006432653266326732683269326A326B3266
:102EA0006C326D326E326F32703271327232733216
:102EB0007432753276327732783279327A327B32C6
:102EC0007C327D327E322133223323332433253347
:102ED00026332733283329332A332B332C332D330E
:102EE0002E332F33303331333233333334333533BE
:102EF00036333733383339333A333B333C333D336E
:102F00003E333F334033413342334333443345331D
:102F100046334733483349334A334B334C334D33CD
:102F20004E334F335033513352335333543355337D
:102F300056335733583359335A335B335C335D332D
:102F40005E335F33603361336233633364336533DD
:102F500066336733683369336A336B336C336D338D
:102F60006E336F337033713372337333743375333D
:102F700076337733783379337A337B337C337D33ED
:102F80007E33213422342334243425342634273428
:102F9000283429342A342B342C342D342E342F3435
:102FA00030343134323433343434353436343734E5
:102FB000383439343A343B343C343D343E343F3495
:102FC0004034413442344334443445344634473445
:102FD000483449344A344B344C344D344E344F34F5
:102FE00050345134523453345434553456345734A5
:102FF000583459345A345B345C345D345E345F3455
:103000006034613462346334643465346634673404
:10301000683469346A346B346C346D346E346F34B4
:103020007034713472347334743475347634773464
:10303000783479347A347B347C347D347E34213571
:1030400022352335243525352635273528352935AC
:103050002A352B352C352D352E352F35303531355C
:10306000323533353435353536353735383539350C
:103070003A353B353C353D353E353F3540354135BC
:10308000423543354435453546354735483549356C
:103090004A354B354C354D354E354F35503551351C
:1030A00052355335543555355635573558355935CC
:1030B0005A355B355C355D355E355F35603561357C
:1030C000623563356435653566356735683569352C
:1030D0006A356B356C356D356E356F3570357135DC
:1030E000723573357435753576357735783579358C
:1030F0007A357B357C357D357E3521362236233653
:103100002436253626362736283629362A362B36D3
:103110002C362D362E362F36303631363236333683
:103120003436353636363736383639363A363B3633
:103130003C363D363E363F364036413642364336E3
:103140004436453646364736483649364A364B3693
:103150004C364D364E364F36503651365236533643
:103160005436553656365736583659365A365B36F3
:103170005C365D365E365F366036613662366336A3
:103180006436653666366736683669366A366B3653
:103190006C366D366E366F36703671367236733603
:1031A0007436753676367736783679367A367B36B3
:1031B0007C367D367E362137223723372437253734
:1031C00026372737283729372A372B372C372D37FB
:1031D0002E372F37303731373237333734373537AB
:1031E00036373737383739373A373B373C373D375B
:1031F0003E373F374037413742374337443745370B
:1032000046374737483749374A374B374C374D37BA
:103210004E374F375037513752375337543755376A
:1032200056375737583759375A375B375C375D371A
:103230005E375F37603761376237633764376537CA
:1032400066376737683769376A376B376C376D377A
:103250006E376F377037713772377337743775372A
:1032600076377737783779377A377B377C377D37DA
:103270007E37213822382338243825382638273815
:10328000283829382A382B382C382D382E382F3822
:1032900030383138323833383438353836383738D2
:1032A000383839383A383B383C383D383E383F3882
:1032B0004038413842384338443845384638473832
:1032C000483849384A384B384C384D384E384F38E2
:1032D0005038513852385338543855385638573892
:1032E000583859385A385B385C385D385E385F3842
:1032F00060386138623863386438653866386738F2
:10330000683869386A386B386C386D386E386F38A1
:103310007038713872387338743875387638773851
:10332000783879387A387B387C387D387E3821395E
:103330002239233924392539263927392839293999
:103340002A392B392C392D392E392F393039313949
:1033500032393339343935393639373938393939F9
:103360003A393B393C393D393E393F3940394139A9
:103370004239433944394539463947394839493959
:103380004A394B394C394D394E394F395039513909
:1033900052395339543955395639573958395939B9
:1033A0005A395B395C395D395E395F396039613969
:1033B0006239633964396539663967396839693919
:1033C0006A396B396C396D396E396F3970397139C9
:1033D0007239733974397539763977397839793979
:1033E0007A397B397C397D397E39213A223A233A40
:1033F000243A253A263A273A283A293A2A3A2B3AC1
:103400002C3A2D3A2E3A2F3A303A313A323A333A70
:10341000343A353A363A373A383A393A3A3A3B3A20
:103420003C3A3D3A3E3A3F3A403A413A423A433AD0
:10343000443A453A463A473A483A493A4A3A4B3A80
:103440004C3A4D3A4E3A4F3A503A513A523A533A30
:10345000543A553A563A573A583A593A5A3A5B3AE0
:103460005C3A5D3A5E3A5F3A603A613A623A633A90
:10347000643A653A663A673A683A693A6A3A6B3A40
:103480006C3A6D3A6E3A6F3A703A713A723A733AF0
:10349000743A753A763A773A783A793A7A3A7B3AA0
:1034A0007C3A7D3A7E3A213B223B233B243B253B21
:1034B000263B273B283B293B2A3B2B3B2C3B2D3BE8
:1034C0002E3B2F3B303B313B323B333B343B353B98
:1034D000363B373B383B393B3A3B3B3B3C3B3D3B48
:1034E0003E3B3F3B403B413B423B433B443B453BF8
:1034F000463B473B483B493B4A3B4B3B4C3B4D3BA8
:103500004E3B4F3B503B513B523B533B543B553B57
:10351000563B573B583B593B5A3B5B3B5C3B5D3B07
:103520005E3B5F3B603B613B623B633B643B653BB7
:10353000663B673B683B693B6A3B6B3B6C3B6D3B67
:103540006E3B6F3B703B713B723B733B743B753B17
:10355000763B773B783B793B7A3B7B3B7C3B7D3BC7
:103560007E3B213C223C233C243C253C263C273C02
:10357000283C293C2A3C2B3C2C3C2D3C2E3C2F3C0F
:10358000303C313C323C333C343C353C363C373CBF
:10359000383C393C3A3C3B3C3C3C3D3C3E3C3F3C6F
:1035A000403C413C423C433C443C453C463C473C1F
:1035B000483C493C4A3C4B3C4C3C4D3C4E3C4F3CCF
:1035C000503C513C523C533C543C553C563C573C7F
:1035D000583C593C5A3C5B3C5C3C5D3C5E3C5F3C2F
:1035E000603C613C623C633C643C653C663C673CDF
:1035F000683C693C6A3C6B3C6C3C6D3C6E3C6F3C8F
:10360000703C713C723C733C743C753C763C773C3E
:10361000783C793C7A3C7B3C7C3C7D3C7E3C213D4B
:10362000223D233D243D253D263D273D283D293D86
:103630002A3D2B3D2C3D2D3D2E3D2F3D303D313D36
:10364000323D333D343D353D363D373D383D393DE6
:103650003A3D3B3D3C3D3D3D3E3D3F3D403D413D96
:10366000423D433D443D453D463D473D483D493D46
:103670004A3D4B3D4C3D4D3D4E3D4F3D503D513DF6
:10368000523D533D543D553D563D573D583D593DA6
:103690005A3D5B3D5C3D5D3D5E3D5F3D603D613D56
:1036A000623D633D643D653D663D673D683D693D06
:1036B0006A3D6B3D6C3D6D3D6E3D6F3D703D713DB6
:1036C000723D733D743D753D763D773D783D793D66
:1036D0007A3D7B3D7C3D7D3D7E3D213E223E233E2D
:1036E000243E253E263E273E283E293E2A3E2B3EAE
:1036F0002C3E2D3E2E3E2F3E303E313E323E333E5E
:10370000343E353E363E373E383E393E3A3E3B3E0D
:103710003C3E3D3E3E3E3F3E403E413E423E433EBD
:10372000443E453E463E473E483E493E4A3E4B3E6D
:103730004C3E4D3E4E3E4F3E503E513E523E533E1D
:10374000543E553E563E573E583E593E5A3E5B3ECD
:103750005C3E5D3E5E3E5F3E603E613E623E633E7D
:10376000643E653E663E673E683E693E6A3E6B3E2D
:103770006C3E6D3E6E3E6F3E703E713E723E733EDD
:10378000743E753E763E773E783E793E7A3E7B3E8D
:103790007C3E7D3E7E3E213F223F233F243F253F0E
:1037A000263F273F283F293F2A3F2B3F2C3F2D3FD5
:1037B0002E3F2F3F303F313F323F333F343F353F85
:1037C000363F373F383F393F3A3F3B3F3C3F3D3F35
:1037D0003E3F3F3F403F413F423F433F443F453FE5
:1037E000463F473F483F493F4A3F4B3F4C3F4D3F95
:1037F0004E3F4F3F503F513F523F533F543F553F45
:10380000563F573F583F593F5A3F5B3F5C3F5D3FF4
:103810005E3F5F3F603F613F623F633F643F653FA4
:10382000663F673F683F693F6A3F6B3F6C3F6D3F54
:103830006E3F6F3F703F713F723F733F743F753F04
:10384000763F773F783F793F7A3F7B3F7C3F7D3FB4
:103850007E3F2140224023402440254026402740EF
:10386000284029402A402B402C402D402E402F40FC
:1038700030403140324033403440354036403740AC
:10388000384039403A403B403C403D403E403F405C
:10389000404041404240434044404540464047400C
:1038A000484049404A404B404C404D404E404F40BC
:1038B000504051405240534054405540564057406C
:1038C000584059405A405B405C405D405E405F401C
:1038D00060406140624063406440654066406740CC
:1038E000684069406A406B406C406D406E406F407C
:1038F000704071407240734074407540764077402C
:10390000784079407A407B407C407D407E40214138
:103910002241234124412541264127412841294173
:103920002A412B412C412D412E412F413041314123
:1039300032413341344135413641374138413941D3
:103940003A413B413C413D413E413F414041414183
:103950004241434144414541464147414841494133
:103960004A414B414C414D414E414F4150415141E3
:103970005241534154415541564157415841594193
:103980005A415B415C415D415E415F416041614143
:1039900062416341644165416641674168416941F3
:1039A0006A416B416C416D416E416F4170417141A3
:1039B0007241734174417541764177417841794153
:1039C0007A417B417C417D417E412142224223421A
:1039D0002442254226422742284229422A422B429B
:1039E0002C422D422E422F4230423142324233424B
:1039F0003442354236423742384239423A423B42FB
:103A00003C423D423E423F424042414242424342AA
:103A10004442454246424742484249424A424B425A
:103A20004C424D424E424F4250425142524253420A
:103A30005442554256425742584259425A425B42BA
:103A40005C425D425E425F4260426142624263426A
:103A50006442654266426742684269426A426B421A
:103A60006C426D426E426F427042714272427342CA
:103A70007442754276427742784279427A427B427A
:103A80007C427D427E4221432243234324432543FB
:103A900026432743284329432A432B432C432D43C2
:103AA0002E432F4330433143324333433443354372
:103AB00036433743384339433A433B433C433D4322
:103AC0003E433F43404341434243434344434543D2
:103AD00046434743484349434A434B434C434D4382
:103AE0004E434F4350435143524353435443554332
:103AF00056435743584359435A435B435C435D43E2
:103B00005E435F4360436143624363436443654391
:103B100066436743684369436A436B436C436D4341
:103B20006E436F43704371437243734374437543F1
:103B300076437743784379437A437B437C437D43A1
:103B40007E432144224423442444254426442744DC
:103B5000284429442A442B442C442D442E442F44E9
:103B60003044314432443344344435443644374499
:103B7000384439443A443B443C443D443E443F4449
:103B800040444144424443444444454446444744F9
:103B9000484449444A444B444C444D444E444F44A9
:103BA0005044514452445344544455445644574459
:103BB000584459445A445B445C445D445E445F4409
:103BC00060446144624463446444654466446744B9
:103BD000684469446A446B446C446D446E446F4469
:103BE0007044714472447344744475447644774419
:103BF000784479447A447B447C447D447E44214526
:103C00002245234524452545264527452845294560
:103C10002A452B452C452D452E452F453045314510
:103C200032453345344535453645374538453945C0
:103C30003A453B453C453D453E453F454045414570
:103C40004245434544454545464547454845494520
:103C50004A454B454C454D454E454F4550455145D0
:103C60005245534554455545564557455845594580
:103C70005A455B455C455D455E455F456045614530
:103C800062456345644565456645674568456945E0
:103C90006A456B456C456D456E456F457045714590
:103CA0007245734574457545764577457845794540
:103CB0007A457B457C457D457E4521462246234607
:103CC0002446254626462746284629462A462B4688
:103CD0002C462D462E462F46304631463246334638
:103CE0003446354636463746384639463A463B46E8
:103CF0003C463D463E463F46404641464246434698
:103D00004446454646464746484649464A464B4647
:103D10004C464D464E464F465046514652465346F7
:103D20005446554656465746584659465A465B46A7
:103D30005C465D465E465F46604661466246634657
:103D40006446654666466746684669466A466B4607
:103D50006C466D466E466F467046714672467346B7
:103D60007446754676467746784679467A467B4667
:103D70007C467D467E4621472247234724472547E8
:103D800026472747284729472A472B472C472D47AF
:103D90002E472F473047314732473347344735475F
:103DA00036473747384739473A473B473C473D470F
:103DB0003E473F47404741474247434744474547BF
:103DC00046474747484749474A474B474C474D476F
:103DD0004E474F475047514752475347544755471F
:103DE00056475747584759475A475B475C475D47CF
:103DF0005E475F476047614762476347644765477F
:103E000066476747684769476A476B476C476D472E
:103E10006E476F47704771477247734774477547DE
:103E200076477747784779477A477B477C477D478E
:103E30007E472148224823482448254826482748C9
:103E4000284829482A482B482C482D482E482F48D6
:103E50003048314832483348344835483648374886
:103E6000384839483A483B483C483D483E483F4836
:103E700040484148424843484448454846484748E6
:103E8000484849484A484B484C484D484E484F4896
:103E90005048514852485348544855485648574846
:103EA000584859485A485B485C485D485E485F48F6
:103EB00060486148624863486448654866486748A6
:103EC000684869486A486B486C486D486E486F4856
:103ED0007048714872487348744875487648774806
:103EE000784879487A487B487C487D487E48504BE2
:103EF000564B674B4F4D684D2D4E7B4F22503850DF
:103F000050505D505451555158515B515C515D5169
:103F10005E515F5160516251635164516551665108
:103F2000685169516A516B516D516F5170517251A5
:103F300076517A517C517D517E5122522352275223
:103F4000285229522A522B522D5232523E5242525C
:103F50004352445246524752485249524A524B5297
:103F60004D524E524F52505251525252535254523D
:103F700055525652575259525A525E525F526152DE
:103F800062526452655266526752685269526A526E
:103F90006B52705271527252735274527552775200
:103FA000785266547C5425552B552E5538564D560F
:103FB0004B576457455B645B255C255D555D745DBF
:103FC0007C5E7E5E335F615F685F71602D616D61F5
:103FD0007563216429642E653165326539653B65F9
:103FE0003C6544654E655065526556657A657B65EE
:103FF0007C657E652166246627662D662F663066A1
:1040000031663366376638663C66446646664766A0
:104010004A665266566659665C665F6661666466A5
:104020006566666668666A666B666C666F6671660C
:104030007266756676667766796621672667296790
:104040002A672C672D6730673F6741674667476778
:104050004B674D674F67506753675F676467666775
:1040600077676768686870687168776879687B687F
:104070007E6827692C694C697769416A656A746A48
:10408000776A7C6A7E6A246B276B296B2A6B3A6B92
:104090003B6B3D6B416B426B466B476B4C6B4F6BA5
:1040A000506B516B526B586B266C276C2A6C2F6CC3
:1040B000306C316C326C356C386C3A6C406C416CE5
:1040C000456C466C496C4A6C556C5D6C5E6C616C01
:1040D000646C676C686C776C786C7A6C216D226D9F
:1040E000236D6E6D5B6E3D727A72317327746E74E0
:1040F000747676763877487753775B787078217A5C
:10410000227A667A297C2123222323232423252330
:1041100026232723282329232A232B232C232D233B
:104120002E232F23302331233223332334233523EB
:1041300036233723382339233A233B233C233D239B
:104140003E233F234023412342234323442345234B
:1041500046234723482349234A234B234C234D23FB
:104160004E234F23502351235223532354235523AB
:1041700056235723582359235A235B232C215D238D
:104180005E235F236023612362236323642365230B
:1041900066236723682369236A236B236C236D23BB
:1041A0006E236F237023712372237323742375236B
:1041B00076237723782379237A237B237C237D231B
:1041C00026224B214C217E217E234D215C230000A1
:1041D00000000000000000000000000000000000DF
:1041E00000000000000000000000000000000000CF
:1041F0000000FF8001800180018001800300030036
:10420000060006000C0018003000E000000000006E
:104210000000FF801980198019803180330033003D
:1042200063006600C6008C000C001800300000001F
:104230000000C000C000C000C000C000C000C0003E
:10424000C000C000C000C000C000FF80000000002F
:104250000000FF80C000C000C000C000C000C0005F
:10426000C000C000C000C000C000FF80000000000F
:104270000000FFC0C600C600C600C600C600C600DB
:10428000C600C600C600C600C660FF800000000071
:104290000000FF8001800180018001800180FF809B
:1042A000C000C000C000C000C0C0FF00000000008F
:1042B0000000FF80C180C180C180C180C180C180F9
:1042C000C180C180C180C180C180FF80000000002A
:1042D0000000C180C180C180C180C180FF80C180D9
:1042E000C180C180C180C180C180FF80000000000A
:1042F0000000C980C980C980C980C980FF80C98089
:10430000C980C980C980C980C980FF8000000000C1
:1043100000000C000C000C000C000C001E001E0025
:104320001B003300330061806180C080000000000A
:1043300000001B001B001B001B001B001F803780A0
:10434000378036C06CC06CC0D8C090400000000000
:1043500000003E0063006300C180C180C180C18055
:10436000C180C180C180630063003E000000000086
:104370000000FF800C000C000C000C001E001E0052
:104380001B003300330061806180C08000000000AA
:104390000000FFC01B001B001B001B001B001F8038
:1043A000378037806CC06CC0D8C0904000000000DF
:1043B0003E000000FF800C000C000C000E001E00F0
:1043C0001B001B00330031806180C08000000000B2
:1043D0000000FF80018001800180FF8001800300D8
:1043E000030006000C0018003000C00000000000B0
:1043F0000000FF80C000C000C000C000C000FF80FF
:10440000C000C000C000C000C0E0FF80000000008D
:104410000000FFC0330033003300330033003300AB
:1044200033003300330033003300FFC000000000CE
:1044300000001E000000FFC000001E00330061806D
:10444000618061806180618033001E000000000097
:10445000000000000000000000000000000000005C
:10446000000000000000000000000000000000004C
:1044700000007FFE0006000600060006000600069B
:104480000006000C000C00180010000000000000E6
:1044900000007FFE03060306030603060306030669
:1044A00003060004000000000000000000000000FF
:1044B000000060006000600060006000600060005C
:1044C0007FFE00000000000000000000000000006F
:1044D00000007FFE6000600060006000600060001F
:1044E0007FFE00000000000000000000000000004F
:1044F00000007EFE60C060C060C060C060C060C080
:104500007EFE00000000000000000000000000002F
:1045100000007FFE000600067FFE60006000600075
:104520007FFE00000000000000000000000000000E
:1045300000007FFE6006600660066006600660069A
:104540007FFE0000000000000000000000000000EE
:1045500000006006600660067FFE6006600660067A
:104560007FFE0000000000000000000000000000CE
:1045700000006186618661867FFE61866186618654
:104580007FFE0000000000000000000000000000AE
:10459000018001800180018003C003C006600C30EF
:1045A0001818600600000000000000000000000075
:1045B00000000660066006600EF00FF01998330CDC
:1045C000660600000000000000000000000000007F
:1045D00000000FF0300C6006600660066006300CCC
:1045E0000FF00000000000000000000000000000CC
:1045F00000007FFE0180018003C006600C301818A7
:10460000300C600600000000000000000000000008
:1046100000007FFE066006600EF00FF01998330C64
:10462000660600000000000000000000000000001E
:104630000FE000007FFE018003C006600C301818F8
:10464000300C6006000000000000000000000000C8
:1046500000007FFE0006000600067FFE0006000642
:10466000000600060000000000000000000000003E
:1046700000007FFE600060007FFE60006000600060
:104680007FFE0000000000000000000000000000AD
:1046900000007FFE0C300C300C300C300C300C3035
:1046A0007FFE00000000000000000000000000008D
:1046B0000FF000007FFE00001FF8300C6006300C89
:1046C0001FF80000000000000000000000000000D3
:1046D00000000000000000000000000000000000DA
:1046E00000000000000000000000000000000000CA
:1046F00000007FFE00060006000600060006000619
:1047000000000000000000000000000000000000A9
:1047100000007FFE03060306030C060C06180C308F
:104720000000000000000000000000000000000089
:104730000000600060006000600060007FFE00001C
:104740000000000000000000000000000000000069
:1047500000007FFE60006000600060007FFE0000DF
:104760000000000000000000000000000000000049
:1047700000007EFE60C060C060C060C07EFE0000C1
:104780000000000000000000000000000000000029
:1047900000007FFE00067FFE600060007FFE0000DC
:1047A0000000000000000000000000000000000009
:1047B00000007FFE60066006600660067FFE000067
:1047C00000000000000000000000000000000000E9
:1047D0000000600660067FFE600660067FFE000047
:1047E00000000000000000000000000000000000C9
:1047F0000000618661867FFE618661867FFE000023
:1048000000000000000000000000000000000000A8
:1048100000000180018003C006601C38700E00009B
:104820000000000000000000000000000000000088
:10483000066006600EF00FF01998330C6606000053
:104840000000000000000000000000000000000068
:1048500000001FF8300C60066006300C1FF80000E6
:104860000000000000000000000000000000000048
:1048700000007FFE018003C006601C38700E00003F
:104880000000000000000000000000000000000028
:1048900000007FFE066006600FF01998730E00009E
:1048A0000000000000000000000000000000000008
:1048B00003C000007FFE018003C00E70781E000060
:1048C00000000000000000000000000000000000E8
:1048D00000007FFE000600067FFE000600060006C0
:1048E000000C0000000000000000000000000000BC
:1048F00000007FFE60007FFE600060007FFE000021
:1049000000000000000000000000000000000000A7
:1049100000007FFE0C300C300C300C307FFE0000AD
:104920000000000000000000000000000000000087
:104930000FF000007FFE1FF8300C300C1FF8000055
:104940000000000000000000000000000000000067
:104950000000000000000000000000000000000057
:104960000000000000000000000000000000000047
:10497000000000007FC000C000C000C000C000C038
:1049800001800000000000000000000000000000A6
:10499000000000007FC00CC00CC00CC00CC00CC0DC
:1049A0000CC000000000000000000000000000003B
:1049B00000000000600060006000600060007FC0D8
:1049C00000000000000000000000000000000000E7
:1049D000000000007FC060006000600060007FC0D9
:1049E00000000000000000000000000000000000C7
:1049F000000000007FC066006600660066007FC0A1
:104A000000000000000000000000000000000000A6
:104A1000000000007FC000C07FC0600060007FC059
:104A20000000000000000000000000000000000086
:104A3000000000007FC060C060C060C060C07FC078
:104A40000000000000000000000000000000000066
:104A5000000060C060C060C07FC060C060C07FC038
:104A60000000000000000000000000000000000046
:104A7000000064C064C064C07FC064C064C07FC004
:104A80000000000000000000000000000000000026
:104A900000000600060006000F000F00198030C05D
:104AA00060C00000000000000000000000000000E6
:104AB000000000001B001B001B003F806D80D8C061
:104AC00000000000000000000000000000000000E6
:104AD00000003F8060C060C060C060C060C03F80B8
:104AE00000000000000000000000000000000000C6
:104AF000000000007FC00E000E001B001B00318074
:104B000060C0000000000000000000000000000085
:104B1000000000007FC01B001B003F8037806CC07E
:104B2000D8C00000000000000000000000000000ED
:104B300000001F0000007FC00E001B001B00318022
:104B400060C0000000000000000000000000000045
:104B5000000000007FC000C000C03FC000C000C017
:104B600000C0000000000000000000000000000085
:104B7000000000007FC060007FC0600060007FC058
:104B80000000000000000000000000000000000025
:104B9000000000007FC01B001B001B001B007FC02B
:104BA0000000000000000000000000000000000005
:104BB00000003F800000FFE03F8060C060C060C038
:104BC0003F80000000000000000000000000000026
:104BD00000000000000000000000000000000000D5
:104BE00000000000000000000000000000000000C5
:104BF000000000007FC000C000C000C000C00080F6
:104C00000080000000000000000000000000000024
:104C1000000000007FC00CC00CC00CC00CC00CC059
:104C20000CC00000000000000000000000000000B8
:104C300000000000600060006000600060007FC055
:104C40000000000000000000000000000000000064
:104C5000000000007FC060006000600060007FC056
:104C60000000000000000000000000000000000044
:104C7000000000007FC066006600660066007FC01E
:104C80000000000000000000000000000000000024
:104C9000000000007FC000C07FC0600060007FC0D7
:104CA0000000000000000000000000000000000004
:104CB000000000007FC060C060C060C060C07FC0F6
:104CC00000000000000000000000000000000000E4
:104CD000000060C060C060C07FC060C060C07FC0B6
:104CE00000000000000000000000000000000000C4
:104CF000000064C064C064C07FC064C064C07FC082
:104D000000000000000000000000000000000000A3
:104D100000000600060006000F000F00198030C0DA
:104D200060600000000000000000000000000000C3
:104D3000000000001B001B003B003F806CC0D860DF
:104D40000000000000000000000000000000000063
:104D500000003F8060C060C060C060C060C03F8035
:104D60000000000000000000000000000000000043
:104D7000000000007FC00E000E001B001B003180F1
:104D800060C0000000000000000000000000000003
:104D9000000000007FC01B001B003F8036C06CC0BD
:104DA000D8400000000000000000000000000000EB
:104DB00000001F0000007FC00E001B001B003180A0
:104DC00060C00000000000000000000000000000C3
:104DD000000000007FC000C000C03FC000C000C095
:104DE00000C0000000000000000000000000000003
:104DF000000000007FC060007FC0600060007FC0D6
:104E000000000000000000000000000000000000A2
:104E1000000000007FC01B001B001B001B007FC0A8
:104E20000000000000000000000000000000000082
:104E300000003F800000FFE03F8060C060C060C0B5
:104E40003F800000000000000000000000000000A3
:104E50000000000000000000000000000000000052
:104E60000000000000000000000000000000000042
:104E700000007F8001800180030006000C003800E4
:104E8000E000000000000000000000000000000042
:104E90000000FF8019801980330033006600C600CF
:104EA0000C000000000000000000000000000000F6
:104EB0000000600060006000600060006000600052
:104EC0007F800000000000000000000000000000E3
:104ED00000007F8060006000600060006000600093
:104EE0007F800000000000000000000000000000C3
:104EF00000007F806600660066006600660066004F
:104F00007F800000000000000000000000000000A2
:104F100000007F80018001807F8060006000600071
:104F20007F80000000000000000000000000000082
:104F300000007F806180618061806180618061802C
:104F40007F80000000000000000000000000000062
:104F500000006180618061807F806180618061800C
:104F60007F80000000000000000000000000000042
:104F700000006D806D806D807F806D806D806D80A4
:104F80007F80000000000000000000000000000022
:104F90000C000C000C000C001E001E00330033003F
:104FA0006180000000000000000000000000000020
:104FB00000001B001B001B003F0037806D806CC091
:104FC000D8C0000000000000000000000000000049
:104FD00000003E006300C180C180C180C1806300C9
:104FE0003E00000000000000000000000000000083
:104FF00000007F800C000C001E001E0033003300F8
:1050000061800000000000000000000000000000BF
:1050100000007FC01B001B003F00378037806CC042
:105020006CC0000000000000000000000000000054
:1050300000001E007F800C000C001E001E003300CC
:10504000618000000000000000000000000000007F
:1050500000007F80018001807F80030006001C002B
:10506000F000000000000000000000000000000050
:1050700000007F80600060007F8060006000600052
:105080007F80000000000000000000000000000021
:1050900000007F80330033003300330033003300DF
:1050A0007F80000000000000000000000000000001
:1050B0003F000000FFC01E003300618061803300AC
:1050C0001E000000000000000000000000000000C2
:1050D00000000000000000000000000000000000D0
:1050E00000000000000000000000000000000000C0
:1050F0007FFE00060006000600060006000600000F
:10510000000000000000000000000000000000009F
:105110007FFE03060306060C060C000000000000DC
:10512000000000000000000000000000000000007F
:10513000600060006000600060007FFE0000000012
:10514000000000000000000000000000000000005F
:105150007FFE60006000600060007FFE00000000D5
:10516000000000000000000000000000000000003F
:105170007EFE60C060C060C060C07EFE00000000B7
:10518000000000000000000000000000000000001F
:105190007FFE00067FFE600060007FFE00000000D2
:1051A00000000000000000000000000000000000FF
:1051B0007FFE6006600660067FFE000000000000C3
:1051C00000000000000000000000000000000000DF
:1051D000600660067FFE600660067FFE000000003D
:1051E00000000000000000000000000000000000BF
:1051F000618661867FFE618661867FFE0000000019
:10520000000000000000000000000000000000009E
:105210000180018003C006601C38700E0000000091
:10522000000000000000000000000000000000007E
:105230000660066006600FF01998330C66060000E1
:10524000000000000000000000000000000000005E
:105250001FF8300C60066006300C1FF800000000DC
:10526000000000000000000000000000000000003E
:105270007FFE018003C006600C301818700E00001D
:10528000000000000000000000000000000000001E
:105290007FFE0660066006600FF01998730E00002E
:1052A00000000000000000000000000000000000FE
:1052B00003C000007FFE018003C00E70781E000056
:1052C00000000000000000000000000000000000DE
:1052D0007FFE000600067FFE0006000600060000B6
:1052E00000000000000000000000000000000000BE
:1052F0007FFE60007FFE60007FFE00000000000077
:10530000000000000000000000000000000000009D
:105310007FFE0C300C300C307FFE000000000000DF
:10532000000000000000000000000000000000007D
:105330000FF00000FFFF3FFC600660063FFC00002E
:10534000000000000000000000000000000000005D
:10535000000000000000000000000000000000004D
:10536000000000000000000000000000000000003D
:1053700000007F800180018001800180000000002A
:10538000000000000000000000000000000000001D
:1053900000007F80198019801980198000000000AA
:1053A00000000000000000000000000000000000FD
:1053B000000060006000600060007FC0000000002E
:1053C00000000000000000000000000000000000DD
:1053D00000007F806000600060007F8000000000AF
:1053E00000000000000000000000000000000000BD
:1053F00000007F806600660066007F80000000007D
:10540000000000000000000000000000000000009C
:1054100000007F8001807F8060007F8000000000AE
:10542000000000000000000000000000000000007C
:1054300000007F806180618061807F8000000000CB
:10544000000000000000000000000000000000005C
:10545000618061807F80618061807F8000000000CA
:10546000000000000000000000000000000000003C
:105470006D806D807F806D806D807F80000000007A
:10548000000000000000000000000000000000001C
:105490000C000C000C001E003300618000000000B6
:1054A00000000000000000000000000000000000FC
:1054B00000001B001B001B003F806CC000000000B0
:1054C00000000000000000000000000000000000DC
:1054D00000003F006180618061803F0000000000AB
:1054E00000000000000000000000000000000000BC
:1054F00000007F800C000C001E0033006180000063
:10550000000000000000000000000000000000009B
:1055100000007FC01B001B003F806CC0000000002B
:10552000000000000000000000000000000000007B
:105530001E0000007F800C001E0033006180000010
:10554000000000000000000000000000000000005B
:1055500000007F8001807F80018001800180000049
:10556000000000000000000000000000000000003B
:1055700000007F8060007F8060007F80000000006E
:10558000000000000000000000000000000000001B
:1055900000007F803300330033007F800000000074
:1055A00000000000000000000000000000000000FB
:1055B0003F0000007F803F00618061803F0000006D
:1055C00000000000000000000000000000000000DB
:1055D00000000000000000000000000000000000CB
:1055E00000000000000000000000000000000000BB
:1055F000000C000C000C000C000C000C000C000F48
:10560000000C000C000C000C000C000C000C000046
:105610000006003600360036003600360036003E02
:105620000036003600360036003600360036000000
:10563000000C000C000C000C000C000F000C000C07
:10564000000F000C000C000C000C000C000C000003
:1056500000060036003600360036003E00360036C2
:10566000003E0036003600360036003600360000B8
:10567000000C000C000C000C000C000C003C000C9A
:10568000000C000C000C000C000C000C000C0000C6
:1056900000060036003600360036003600F60036CA
:1056A0000036003600360036003600360036000080
:1056B000000C000C000C000C000C003C000C000C5A
:1056C000003C000C000C000C000C000C000C000056
:1056D0000006003600360036003600F6003600368A
:1056E00000F6003600360036003600360036000080
:1056F00000000000000000000000000000000000AA
:1057000000000000018001800180FFFE0000000019
:10571000000C000C000C000C000C000C000C000F26
:10572000000C0C0C0C0C0C0C0C0CFFEC000C000016
:105730000006003600360036003600360036003EE1
:1057400000360C360C360C360C36FFF600360000F0
:10575000000C000C000C000C000C000C000C000CE9
:10576000000C0C0C0C0C0C0C0C0CFFEC000C0000D6
:105770000000000000000000000000000000000029
:10578000000000000CC00CC00CC0FFFE00000000B8
:105790000000000000000000000000000000000009
:1057A0000000FFFE01800180018001800180000077
:1057B000000C000C000C000C000C000C000C000C89
:1057C000008CFFEC060C06FC060C060C060C000018
:1057D0000006003600360036003600360036003649
:1057E0000036FFF60C360DF60C360C360C36000083
:1057F000000C000C000C000C000C000C000C000C49
:10580000001CFFEC060C060C060C060C060C000037
:105810000000000000000000000000000000000088
:105820000000FFFE0660066006600660066000007D
:105830000000000000000000000000000000000068
:1058400000000000000000000000FFFE000000005B
:10585000000C000C000C000C000C000C000C000CE8
:10586000000C000C000C000C001CFFEC000C0000F5
:10587000000C000C000C000C000C000C000C000CC8
:10588000000C000C000C000C000C000C000C0000C4
:105890000000000000000000000000000000000008
:1058A00000000000000000000000000000000000F8
:1058B000000C000C000C000C000C000C000C000F85
:1058C000000C000C000C000C000C000C000C000084
:1058D0000006003600360036003600360036003E40
:1058E000003600360036003600360036003600003E
:1058F000000C000C000C000C000C000F000C000C45
:10590000000F000C000C000C000C000C000C000040
:1059100000060036003600360036003E00360036FF
:10592000003E0036003600360036003600360000F5
:10593000000C000C000C000C000C000C007C000C97
:10594000000C000C000C000C000C000C000C000003
:1059500000060036003600360036003600F6003607
:1059600000360036003600360036003600360000BD
:10597000000C000C000C000C000C003C000C000C97
:10598000003C000C000C000C000C000C000C000093
:105990000006003600360036003600F600360036C7
:1059A00000F60036003600360036003600360000BD
:1059B00000000000000000000000000000000000E7
:1059C00000000000018001800180FFFE0000000057
:1059D000000C000C000C000C000C000C000C000F64
:1059E000000C0C0C0C0C0C0C0C1CFFEC000C000044
:1059F0000006003600360036003600360036003E1F
:105A000000360C360C360C360C36FFF6003600002D
:105A1000000C000C000C000C000C000C000C000C26
:105A2000000C0C0C0C0C0C0C0C0CFFEC000C000013
:105A30000000000000000000000000000000000066
:105A400000000000066006600660FFFE0000000027
:105A50000000000000000000000000000000000046
:105A60000000FFFE018001800180018001800000B4
:105A7000000C000C000C000C000C000C000C000CC6
:105A8000000CFFEC060C06FC060C060C060C0000D5
:105A90000006003600360036003600360036003686
:105AA0000036FFF60C360DF60C360C360C360000C0
:105AB000000C000C000C000C000C000C000C000C86
:105AC000001CFFEC060C060C060C060C060C000075
:105AD00000000000000000000000000000000000C6
